{
  "_format": "hh3-artifact-1",
  "contractName": "DpwhProjects",
  "sourceName": "contracts/DpwhProjects.sol",
  "abi": [
    {
      "inputs": [],
      "stateMutability": "nonpayable",
      "type": "constructor"
    },
    {
      "inputs": [
        {
          "internalType": "address",
          "name": "sender",
          "type": "address"
        },
        {
          "internalType": "uint256",
          "name": "tokenId",
          "type": "uint256"
        },
        {
          "internalType": "address",
          "name": "owner",
          "type": "address"
        }
      ],
      "name": "ERC721IncorrectOwner",
      "type": "error"
    },
    {
      "inputs": [
        {
          "internalType": "address",
          "name": "operator",
          "type": "address"
        },
        {
          "internalType": "uint256",
          "name": "tokenId",
          "type": "uint256"
        }
      ],
      "name": "ERC721InsufficientApproval",
      "type": "error"
    },
    {
      "inputs": [
        {
          "internalType": "address",
          "name": "approver",
          "type": "address"
        }
      ],
      "name": "ERC721InvalidApprover",
      "type": "error"
    },
    {
      "inputs": [
        {
          "internalType": "address",
          "name": "operator",
          "type": "address"
        }
      ],
      "name": "ERC721InvalidOperator",
      "type": "error"
    },
    {
      "inputs": [
        {
          "internalType": "address",
          "name": "owner",
          "type": "address"
        }
      ],
      "name": "ERC721InvalidOwner",
      "type": "error"
    },
    {
      "inputs": [
        {
          "internalType": "address",
          "name": "receiver",
          "type": "address"
        }
      ],
      "name": "ERC721InvalidReceiver",
      "type": "error"
    },
    {
      "inputs": [
        {
          "internalType": "address",
          "name": "sender",
          "type": "address"
        }
      ],
      "name": "ERC721InvalidSender",
      "type": "error"
    },
    {
      "inputs": [
        {
          "internalType": "uint256",
          "name": "tokenId",
          "type": "uint256"
        }
      ],
      "name": "ERC721NonexistentToken",
      "type": "error"
    },
    {
      "inputs": [
        {
          "internalType": "uint256",
          "name": "_projectId",
          "type": "uint256"
        }
      ],
      "name": "ProjectNotExist",
      "type": "error"
    },
    {
      "inputs": [
        {
          "internalType": "address",
          "name": "_ownerAddress",
          "type": "address"
        }
      ],
      "name": "notOwner",
      "type": "error"
    },
    {
      "anonymous": false,
      "inputs": [
        {
          "indexed": true,
          "internalType": "address",
          "name": "owner",
          "type": "address"
        },
        {
          "indexed": true,
          "internalType": "address",
          "name": "approved",
          "type": "address"
        },
        {
          "indexed": true,
          "internalType": "uint256",
          "name": "tokenId",
          "type": "uint256"
        }
      ],
      "name": "Approval",
      "type": "event"
    },
    {
      "anonymous": false,
      "inputs": [
        {
          "indexed": true,
          "internalType": "address",
          "name": "owner",
          "type": "address"
        },
        {
          "indexed": true,
          "internalType": "address",
          "name": "operator",
          "type": "address"
        },
        {
          "indexed": false,
          "internalType": "bool",
          "name": "approved",
          "type": "bool"
        }
      ],
      "name": "ApprovalForAll",
      "type": "event"
    },
    {
      "anonymous": false,
      "inputs": [
        {
          "indexed": true,
          "internalType": "address",
          "name": "from",
          "type": "address"
        },
        {
          "indexed": true,
          "internalType": "address",
          "name": "to",
          "type": "address"
        },
        {
          "indexed": true,
          "internalType": "uint256",
          "name": "tokenId",
          "type": "uint256"
        }
      ],
      "name": "Transfer",
      "type": "event"
    },
    {
      "inputs": [
        {
          "internalType": "address",
          "name": "to",
          "type": "address"
        },
        {
          "internalType": "uint256",
          "name": "tokenId",
          "type": "uint256"
        }
      ],
      "name": "approve",
      "outputs": [],
      "stateMutability": "nonpayable",
      "type": "function"
    },
    {
      "inputs": [
        {
          "internalType": "address",
          "name": "owner",
          "type": "address"
        }
      ],
      "name": "balanceOf",
      "outputs": [
        {
          "internalType": "uint256",
          "name": "",
          "type": "uint256"
        }
      ],
      "stateMutability": "view",
      "type": "function"
    },
    {
      "inputs": [
        {
          "internalType": "string",
          "name": "_name",
          "type": "string"
        },
        {
          "internalType": "string",
          "name": "_location",
          "type": "string"
        },
        {
          "internalType": "uint256",
          "name": "_budget",
          "type": "uint256"
        },
        {
          "internalType": "address[]",
          "name": "_signatories",
          "type": "address[]"
        },
        {
          "internalType": "address[]",
          "name": "_engineers",
          "type": "address[]"
        },
        {
          "internalType": "address[]",
          "name": "_contractors",
          "type": "address[]"
        },
        {
          "internalType": "string",
          "name": "_timelineStart",
          "type": "string"
        },
        {
          "internalType": "string",
          "name": "_timelineEnd",
          "type": "string"
        },
        {
          "internalType": "string",
          "name": "_proposalLink",
          "type": "string"
        }
      ],
      "name": "createProjectNft",
      "outputs": [],
      "stateMutability": "nonpayable",
      "type": "function"
    },
    {
      "inputs": [
        {
          "internalType": "uint256",
          "name": "tokenId",
          "type": "uint256"
        }
      ],
      "name": "getApproved",
      "outputs": [
        {
          "internalType": "address",
          "name": "",
          "type": "address"
        }
      ],
      "stateMutability": "view",
      "type": "function"
    },
    {
      "inputs": [
        {
          "internalType": "uint8",
          "name": "_projectId",
          "type": "uint8"
        }
      ],
      "name": "getPDF",
      "outputs": [
        {
          "internalType": "string",
          "name": "",
          "type": "string"
        }
      ],
      "stateMutability": "view",
      "type": "function"
    },
    {
      "inputs": [],
      "name": "i_owner",
      "outputs": [
        {
          "internalType": "address",
          "name": "",
          "type": "address"
        }
      ],
      "stateMutability": "view",
      "type": "function"
    },
    {
      "inputs": [
        {
          "internalType": "address",
          "name": "owner",
          "type": "address"
        },
        {
          "internalType": "address",
          "name": "operator",
          "type": "address"
        }
      ],
      "name": "isApprovedForAll",
      "outputs": [
        {
          "internalType": "bool",
          "name": "",
          "type": "bool"
        }
      ],
      "stateMutability": "view",
      "type": "function"
    },
    {
      "inputs": [],
      "name": "name",
      "outputs": [
        {
          "internalType": "string",
          "name": "",
          "type": "string"
        }
      ],
      "stateMutability": "view",
      "type": "function"
    },
    {
      "inputs": [],
      "name": "nextProjectId",
      "outputs": [
        {
          "internalType": "uint256",
          "name": "",
          "type": "uint256"
        }
      ],
      "stateMutability": "view",
      "type": "function"
    },
    {
      "inputs": [
        {
          "internalType": "uint256",
          "name": "tokenId",
          "type": "uint256"
        }
      ],
      "name": "ownerOf",
      "outputs": [
        {
          "internalType": "address",
          "name": "",
          "type": "address"
        }
      ],
      "stateMutability": "view",
      "type": "function"
    },
    {
      "inputs": [
        {
          "internalType": "uint256",
          "name": "",
          "type": "uint256"
        }
      ],
      "name": "projects",
      "outputs": [
        {
          "internalType": "uint256",
          "name": "projectId",
          "type": "uint256"
        },
        {
          "internalType": "string",
          "name": "projectName",
          "type": "string"
        },
        {
          "internalType": "string",
          "name": "location",
          "type": "string"
        },
        {
          "internalType": "uint256",
          "name": "budgetPeso",
          "type": "uint256"
        },
        {
          "internalType": "string",
          "name": "timelineStart",
          "type": "string"
        },
        {
          "internalType": "string",
          "name": "timelineEnd",
          "type": "string"
        },
        {
          "internalType": "enum DpwhProjects.Status",
          "name": "status",
          "type": "uint8"
        },
        {
          "internalType": "string",
          "name": "proposalLink",
          "type": "string"
        }
      ],
      "stateMutability": "view",
      "type": "function"
    },
    {
      "inputs": [
        {
          "internalType": "address",
          "name": "from",
          "type": "address"
        },
        {
          "internalType": "address",
          "name": "to",
          "type": "address"
        },
        {
          "internalType": "uint256",
          "name": "tokenId",
          "type": "uint256"
        }
      ],
      "name": "safeTransferFrom",
      "outputs": [],
      "stateMutability": "nonpayable",
      "type": "function"
    },
    {
      "inputs": [
        {
          "internalType": "address",
          "name": "from",
          "type": "address"
        },
        {
          "internalType": "address",
          "name": "to",
          "type": "address"
        },
        {
          "internalType": "uint256",
          "name": "tokenId",
          "type": "uint256"
        },
        {
          "internalType": "bytes",
          "name": "data",
          "type": "bytes"
        }
      ],
      "name": "safeTransferFrom",
      "outputs": [],
      "stateMutability": "nonpayable",
      "type": "function"
    },
    {
      "inputs": [
        {
          "internalType": "address",
          "name": "operator",
          "type": "address"
        },
        {
          "internalType": "bool",
          "name": "approved",
          "type": "bool"
        }
      ],
      "name": "setApprovalForAll",
      "outputs": [],
      "stateMutability": "nonpayable",
      "type": "function"
    },
    {
      "inputs": [
        {
          "internalType": "bytes4",
          "name": "interfaceId",
          "type": "bytes4"
        }
      ],
      "name": "supportsInterface",
      "outputs": [
        {
          "internalType": "bool",
          "name": "",
          "type": "bool"
        }
      ],
      "stateMutability": "view",
      "type": "function"
    },
    {
      "inputs": [],
      "name": "symbol",
      "outputs": [
        {
          "internalType": "string",
          "name": "",
          "type": "string"
        }
      ],
      "stateMutability": "view",
      "type": "function"
    },
    {
      "inputs": [
        {
          "internalType": "uint256",
          "name": "tokenId",
          "type": "uint256"
        }
      ],
      "name": "tokenURI",
      "outputs": [
        {
          "internalType": "string",
          "name": "",
          "type": "string"
        }
      ],
      "stateMutability": "view",
      "type": "function"
    },
    {
      "inputs": [
        {
          "internalType": "address",
          "name": "from",
          "type": "address"
        },
        {
          "internalType": "address",
          "name": "to",
          "type": "address"
        },
        {
          "internalType": "uint256",
          "name": "tokenId",
          "type": "uint256"
        }
      ],
      "name": "transferFrom",
      "outputs": [],
      "stateMutability": "nonpayable",
      "type": "function"
    },
    {
      "inputs": [
        {
          "internalType": "uint256",
          "name": "_projectId",
          "type": "uint256"
        },
        {
          "internalType": "enum DpwhProjects.Status",
          "name": "_status",
          "type": "uint8"
        }
      ],
      "name": "updateStatus",
      "outputs": [],
      "stateMutability": "nonpayable",
      "type": "function"
    }
  ],
  "bytecode": "0x60a06040526001600655348015610014575f5ffd5b506040518060400160405280600d81526020016c445057485f50524f4a4543545360981b81525060405180604001604052806005815260200164044505748560dc1b815250815f90816100679190610118565b5060016100748282610118565b505033608052506101d2565b634e487b7160e01b5f52604160045260245ffd5b600181811c908216806100a857607f821691505b6020821081036100c657634e487b7160e01b5f52602260045260245ffd5b50919050565b601f82111561011357805f5260205f20601f840160051c810160208510156100f15750805b601f840160051c820191505b81811015610110575f81556001016100fd565b50505b505050565b81516001600160401b0381111561013157610131610080565b6101458161013f8454610094565b846100cc565b6020601f821160018114610177575f83156101605750848201515b5f19600385901b1c1916600184901b178455610110565b5f84815260208120601f198516915b828110156101a65787850151825560209485019460019092019101610186565b50848210156101c357868401515f19600387901b60f8161c191681555b50505050600190811b01905550565b608051611a6f6101f15f395f818161028a01526109cb0152611a6f5ff3fe608060405234801561000f575f5ffd5b506004361061011c575f3560e01c80636352211e116100a9578063c87b56dd1161006e578063c87b56dd14610272578063dba6335f14610285578063df69023c146102ac578063e935b7b1146102bf578063e985e9c5146102c8575f5ffd5b80636352211e1461021057806370a082311461022357806395d89b4114610244578063a22cb4651461024c578063b88d4fde1461025f575f5ffd5b8063107046bd116100ef578063107046bd1461019d578063119bf0f8146101c457806323b872dd146101d75780633a1b3d31146101ea57806342842e0e146101fd575f5ffd5b806301ffc9a71461012057806306fdde0314610148578063081812fc1461015d578063095ea7b314610188575b5f5ffd5b61013361012e3660046112e9565b6102db565b60405190151581526020015b60405180910390f35b61015061032c565b60405161013f9190611332565b61017061016b366004611344565b6103bb565b6040516001600160a01b03909116815260200161013f565b61019b610196366004611376565b6103e2565b005b6101b06101ab366004611344565b6103f1565b60405161013f9897969594939291906113b2565b6101506101d2366004611451565b6106d8565b61019b6101e5366004611471565b6107bb565b61019b6101f83660046114ab565b610844565b61019b61020b366004611471565b6108af565b61017061021e366004611344565b6108ce565b6102366102313660046114dc565b6108d8565b60405190815260200161013f565b61015061091d565b61019b61025a3660046114f5565b61092c565b61019b61026d3660046115bf565b610937565b610150610280366004611344565b61094f565b6101707f000000000000000000000000000000000000000000000000000000000000000081565b61019b6102ba3660046116d9565b6109c0565b61023660065481565b6101336102d636600461183c565b610b9d565b5f6001600160e01b031982166380ac58cd60e01b148061030b57506001600160e01b03198216635b5e139f60e01b145b8061032657506301ffc9a760e01b6001600160e01b03198316145b92915050565b60605f805461033a9061186d565b80601f01602080910402602001604051908101604052809291908181526020018280546103669061186d565b80156103b15780601f10610388576101008083540402835291602001916103b1565b820191905f5260205f20905b81548152906001019060200180831161039457829003601f168201915b5050505050905090565b5f6103c582610bca565b505f828152600460205260409020546001600160a01b0316610326565b6103ed828233610c02565b5050565b60076020525f9081526040902080546001820180549192916104129061186d565b80601f016020809104026020016040519081016040528092919081815260200182805461043e9061186d565b80156104895780601f1061046057610100808354040283529160200191610489565b820191905f5260205f20905b81548152906001019060200180831161046c57829003601f168201915b50505050509080600201805461049e9061186d565b80601f01602080910402602001604051908101604052809291908181526020018280546104ca9061186d565b80156105155780601f106104ec57610100808354040283529160200191610515565b820191905f5260205f20905b8154815290600101906020018083116104f857829003601f168201915b5050505050908060030154908060070180546105309061186d565b80601f016020809104026020016040519081016040528092919081815260200182805461055c9061186d565b80156105a75780601f1061057e576101008083540402835291602001916105a7565b820191905f5260205f20905b81548152906001019060200180831161058a57829003601f168201915b5050505050908060080180546105bc9061186d565b80601f01602080910402602001604051908101604052809291908181526020018280546105e89061186d565b80156106335780601f1061060a57610100808354040283529160200191610633565b820191905f5260205f20905b81548152906001019060200180831161061657829003601f168201915b5050506009840154600a85018054949560ff9092169491935091506106579061186d565b80601f01602080910402602001604051908101604052809291908181526020018280546106839061186d565b80156106ce5780601f106106a5576101008083540402835291602001916106ce565b820191905f5260205f20905b8154815290600101906020018083116106b157829003601f168201915b5050505050905088565b60ff81165f81815260076020526040812060030154606092910361071757604051631cfe4d4160e31b8152600481018290526024015b60405180910390fd5b60ff83165f908152600760205260409020600a0180546107369061186d565b80601f01602080910402602001604051908101604052809291908181526020018280546107629061186d565b80156107ad5780601f10610784576101008083540402835291602001916107ad565b820191905f5260205f20905b81548152906001019060200180831161079057829003601f168201915b505050505091505b50919050565b6001600160a01b0382166107e457604051633250574960e11b81525f600482015260240161070e565b5f6107f0838333610c0f565b9050836001600160a01b0316816001600160a01b03161461083e576040516364283d7b60e01b81526001600160a01b038086166004830152602482018490528216604482015260640161070e565b50505050565b5f8281526007602052604081206003015483910361087857604051631cfe4d4160e31b81526004810182905260240161070e565b5f838152600760205260409020600901805483919060ff191660018360038111156108a5576108a561139e565b0217905550505050565b6108c983838360405180602001604052805f815250610937565b505050565b5f61032682610bca565b5f6001600160a01b038216610902576040516322718ad960e21b81525f600482015260240161070e565b506001600160a01b03165f9081526003602052604090205490565b60606001805461033a9061186d565b6103ed338383610d01565b6109428484846107bb565b61083e3385858585610d9f565b606061095a82610bca565b505f61097060408051602081019091525f815290565b90505f81511161098e5760405180602001604052805f8152506109b9565b8061099884610ec7565b6040516020016109a99291906118b6565b6040516020818303038152906040525b9392505050565b336001600160a01b037f00000000000000000000000000000000000000000000000000000000000000001614610a0b57604051633ed4250360e11b815233600482015260240161070e565b60405180610160016040528060065481526020018a81526020018981526020018881526020018781526020018681526020018581526020018481526020018381526020015f6003811115610a6157610a6161139e565b815260209081018390526006545f908152600782526040902082518155908201516001820190610a91908261190e565b5060408201516002820190610aa6908261190e565b506060820151600382015560808201518051610acc91600484019160209091019061125a565b5060a08201518051610ae891600584019160209091019061125a565b5060c08201518051610b0491600684019160209091019061125a565b5060e08201516007820190610b19908261190e565b506101008201516008820190610b2f908261190e565b5061012082015160098201805460ff19166001836003811115610b5457610b5461139e565b0217905550610140820151600a820190610b6e908261190e565b50905050610b7e33600654610f56565b60068054905f610b8d836119c8565b9190505550505050505050505050565b6001600160a01b039182165f90815260056020908152604080832093909416825291909152205460ff1690565b5f818152600260205260408120546001600160a01b03168061032657604051637e27328960e01b81526004810184905260240161070e565b6108c98383836001610fb7565b5f828152600260205260408120546001600160a01b0390811690831615610c3b57610c3b8184866110bb565b6001600160a01b03811615610c7557610c565f855f5f610fb7565b6001600160a01b0381165f90815260036020526040902080545f190190555b6001600160a01b03851615610ca3576001600160a01b0385165f908152600360205260409020805460010190555b5f8481526002602052604080822080546001600160a01b0319166001600160a01b0389811691821790925591518793918516917fddf252ad1be2c89b69c2b068fc378daa952ba7f163c4a11628f55a4df523b3ef91a4949350505050565b6001600160a01b038216610d3357604051630b61174360e31b81526001600160a01b038316600482015260240161070e565b6001600160a01b038381165f81815260056020908152604080832094871680845294825291829020805460ff191686151590811790915591519182527f17307eab39ab6107e8899845ad3d59bd9653f200f220920489ca2b5937696c31910160405180910390a3505050565b6001600160a01b0383163b15610ec057604051630a85bd0160e11b81526001600160a01b0384169063150b7a0290610de19088908890879087906004016119ec565b6020604051808303815f875af1925050508015610e1b575060408051601f3d908101601f19168201909252610e1891810190611a1e565b60015b610e82573d808015610e48576040519150601f19603f3d011682016040523d82523d5f602084013e610e4d565b606091505b5080515f03610e7a57604051633250574960e11b81526001600160a01b038516600482015260240161070e565b805160208201fd5b6001600160e01b03198116630a85bd0160e11b14610ebe57604051633250574960e11b81526001600160a01b038516600482015260240161070e565b505b5050505050565b60605f610ed38361111f565b60010190505f816001600160401b03811115610ef157610ef1611523565b6040519080825280601f01601f191660200182016040528015610f1b576020820181803683370190505b5090508181016020015b5f19016f181899199a1a9b1b9c1cb0b131b232b360811b600a86061a8153600a8504945084610f2557509392505050565b6001600160a01b038216610f7f57604051633250574960e11b81525f600482015260240161070e565b5f610f8b83835f610c0f565b90506001600160a01b038116156108c9576040516339e3563760e11b81525f600482015260240161070e565b8080610fcb57506001600160a01b03821615155b1561108c575f610fda84610bca565b90506001600160a01b038316158015906110065750826001600160a01b0316816001600160a01b031614155b801561101957506110178184610b9d565b155b156110425760405163a9fbf51f60e01b81526001600160a01b038416600482015260240161070e565b811561108a5783856001600160a01b0316826001600160a01b03167f8c5be1e5ebec7d5bd14f71427d1e84f3dd0314c0f7b2291e5b200ac8c7c3b92560405160405180910390a45b505b50505f90815260046020526040902080546001600160a01b0319166001600160a01b0392909216919091179055565b6110c68383836111f6565b6108c9576001600160a01b0383166110f457604051637e27328960e01b81526004810182905260240161070e565b60405163177e802f60e01b81526001600160a01b03831660048201526024810182905260440161070e565b5f8072184f03e93ff9f4daa797ed6e38ed64bf6a1f0160401b831061115d5772184f03e93ff9f4daa797ed6e38ed64bf6a1f0160401b830492506040015b6d04ee2d6d415b85acef81000000008310611189576d04ee2d6d415b85acef8100000000830492506020015b662386f26fc1000083106111a757662386f26fc10000830492506010015b6305f5e10083106111bf576305f5e100830492506008015b61271083106111d357612710830492506004015b606483106111e5576064830492506002015b600a83106103265760010192915050565b5f6001600160a01b038316158015906112525750826001600160a01b0316846001600160a01b0316148061122f575061122f8484610b9d565b8061125257505f828152600460205260409020546001600160a01b038481169116145b949350505050565b828054828255905f5260205f209081019282156112ad579160200282015b828111156112ad57825182546001600160a01b0319166001600160a01b03909116178255602090920191600190910190611278565b506112b99291506112bd565b5090565b5b808211156112b9575f81556001016112be565b6001600160e01b0319811681146112e6575f5ffd5b50565b5f602082840312156112f9575f5ffd5b81356109b9816112d1565b5f81518084528060208401602086015e5f602082860101526020601f19601f83011685010191505092915050565b602081525f6109b96020830184611304565b5f60208284031215611354575f5ffd5b5035919050565b80356001600160a01b0381168114611371575f5ffd5b919050565b5f5f60408385031215611387575f5ffd5b6113908361135b565b946020939093013593505050565b634e487b7160e01b5f52602160045260245ffd5b88815261010060208201525f6113cc61010083018a611304565b82810360408401526113de818a611304565b905087606084015282810360808401526113f88188611304565b905082810360a084015261140c8187611304565b90506004851061142a57634e487b7160e01b5f52602160045260245ffd5b8460c084015282810360e08401526114428185611304565b9b9a5050505050505050505050565b5f60208284031215611461575f5ffd5b813560ff811681146109b9575f5ffd5b5f5f5f60608486031215611483575f5ffd5b61148c8461135b565b925061149a6020850161135b565b929592945050506040919091013590565b5f5f604083850312156114bc575f5ffd5b823591506020830135600481106114d1575f5ffd5b809150509250929050565b5f602082840312156114ec575f5ffd5b6109b98261135b565b5f5f60408385031215611506575f5ffd5b61150f8361135b565b9150602083013580151581146114d1575f5ffd5b634e487b7160e01b5f52604160045260245ffd5b604051601f8201601f191681016001600160401b038111828210171561155f5761155f611523565b604052919050565b5f5f6001600160401b0384111561158057611580611523565b50601f8301601f191660200161159581611537565b9150508281528383830111156115a9575f5ffd5b828260208301375f602084830101529392505050565b5f5f5f5f608085870312156115d2575f5ffd5b6115db8561135b565b93506115e96020860161135b565b92506040850135915060608501356001600160401b0381111561160a575f5ffd5b8501601f8101871361161a575f5ffd5b61162987823560208401611567565b91505092959194509250565b5f82601f830112611644575f5ffd5b6109b983833560208501611567565b5f82601f830112611662575f5ffd5b81356001600160401b0381111561167b5761167b611523565b8060051b61168b60208201611537565b918252602081850181019290810190868411156116a6575f5ffd5b6020860192505b838310156116cf576116be8361135b565b8252602092830192909101906116ad565b9695505050505050565b5f5f5f5f5f5f5f5f5f6101208a8c0312156116f2575f5ffd5b89356001600160401b03811115611707575f5ffd5b6117138c828d01611635565b99505060208a01356001600160401b0381111561172e575f5ffd5b61173a8c828d01611635565b98505060408a0135965060608a01356001600160401b0381111561175c575f5ffd5b6117688c828d01611653565b96505060808a01356001600160401b03811115611783575f5ffd5b61178f8c828d01611653565b95505060a08a01356001600160401b038111156117aa575f5ffd5b6117b68c828d01611653565b94505060c08a01356001600160401b038111156117d1575f5ffd5b6117dd8c828d01611635565b93505060e08a01356001600160401b038111156117f8575f5ffd5b6118048c828d01611635565b9250506101008a01356001600160401b03811115611820575f5ffd5b61182c8c828d01611635565b9150509295985092959850929598565b5f5f6040838503121561184d575f5ffd5b6118568361135b565b91506118646020840161135b565b90509250929050565b600181811c9082168061188157607f821691505b6020821081036107b557634e487b7160e01b5f52602260045260245ffd5b5f81518060208401855e5f93019283525090919050565b5f6112526118c4838661189f565b8461189f565b601f8211156108c957805f5260205f20601f840160051c810160208510156118ef5750805b601f840160051c820191505b81811015610ec0575f81556001016118fb565b81516001600160401b0381111561192757611927611523565b61193b81611935845461186d565b846118ca565b6020601f82116001811461196d575f83156119565750848201515b5f19600385901b1c1916600184901b178455610ec0565b5f84815260208120601f198516915b8281101561199c578785015182556020948501946001909201910161197c565b50848210156119b957868401515f19600387901b60f8161c191681555b50505050600190811b01905550565b5f600182016119e557634e487b7160e01b5f52601160045260245ffd5b5060010190565b6001600160a01b03858116825284166020820152604081018390526080606082018190525f906116cf90830184611304565b5f60208284031215611a2e575f5ffd5b81516109b9816112d156fea26469706673582212201968cf1ddb1a7445d42c57af171021c2f8672c2253fce16844a6802b55c783c664736f6c634300081c0033",
  "linkReferences": {},
  "deployedLinkReferences": {},
  "immutableReferences": {
    "6548": [
      {
        "length": 32,
        "start": 650
      },
      {
        "length": 32,
        "start": 2507
      }
    ]
  },
  "inputSourceName": "project/contracts/DpwhProjects.sol",
  "buildInfoId": "solc-0_8_28-3bea804caa16c8565cec8b628dbe59a01227f8c0"
}