{
  "_format": "hh3-artifact-1",
  "contractName": "Projects",
  "sourceName": "contracts/Projects.sol",
  "abi": [
    {
      "inputs": [],
      "stateMutability": "nonpayable",
      "type": "constructor"
    },
    {
      "inputs": [
        {
          "internalType": "address",
          "name": "sender",
          "type": "address"
        },
        {
          "internalType": "uint256",
          "name": "tokenId",
          "type": "uint256"
        },
        {
          "internalType": "address",
          "name": "owner",
          "type": "address"
        }
      ],
      "name": "ERC721IncorrectOwner",
      "type": "error"
    },
    {
      "inputs": [
        {
          "internalType": "address",
          "name": "operator",
          "type": "address"
        },
        {
          "internalType": "uint256",
          "name": "tokenId",
          "type": "uint256"
        }
      ],
      "name": "ERC721InsufficientApproval",
      "type": "error"
    },
    {
      "inputs": [
        {
          "internalType": "address",
          "name": "approver",
          "type": "address"
        }
      ],
      "name": "ERC721InvalidApprover",
      "type": "error"
    },
    {
      "inputs": [
        {
          "internalType": "address",
          "name": "operator",
          "type": "address"
        }
      ],
      "name": "ERC721InvalidOperator",
      "type": "error"
    },
    {
      "inputs": [
        {
          "internalType": "address",
          "name": "owner",
          "type": "address"
        }
      ],
      "name": "ERC721InvalidOwner",
      "type": "error"
    },
    {
      "inputs": [
        {
          "internalType": "address",
          "name": "receiver",
          "type": "address"
        }
      ],
      "name": "ERC721InvalidReceiver",
      "type": "error"
    },
    {
      "inputs": [
        {
          "internalType": "address",
          "name": "sender",
          "type": "address"
        }
      ],
      "name": "ERC721InvalidSender",
      "type": "error"
    },
    {
      "inputs": [
        {
          "internalType": "uint256",
          "name": "tokenId",
          "type": "uint256"
        }
      ],
      "name": "ERC721NonexistentToken",
      "type": "error"
    },
    {
      "inputs": [
        {
          "internalType": "uint256",
          "name": "_projectId",
          "type": "uint256"
        }
      ],
      "name": "ProjectNotExist",
      "type": "error"
    },
    {
      "inputs": [
        {
          "internalType": "address",
          "name": "_ownerAddress",
          "type": "address"
        }
      ],
      "name": "notOwner",
      "type": "error"
    },
    {
      "anonymous": false,
      "inputs": [
        {
          "indexed": true,
          "internalType": "address",
          "name": "owner",
          "type": "address"
        },
        {
          "indexed": true,
          "internalType": "address",
          "name": "approved",
          "type": "address"
        },
        {
          "indexed": true,
          "internalType": "uint256",
          "name": "tokenId",
          "type": "uint256"
        }
      ],
      "name": "Approval",
      "type": "event"
    },
    {
      "anonymous": false,
      "inputs": [
        {
          "indexed": true,
          "internalType": "address",
          "name": "owner",
          "type": "address"
        },
        {
          "indexed": true,
          "internalType": "address",
          "name": "operator",
          "type": "address"
        },
        {
          "indexed": false,
          "internalType": "bool",
          "name": "approved",
          "type": "bool"
        }
      ],
      "name": "ApprovalForAll",
      "type": "event"
    },
    {
      "anonymous": false,
      "inputs": [
        {
          "indexed": true,
          "internalType": "address",
          "name": "owner",
          "type": "address"
        }
      ],
      "name": "OwnerSet",
      "type": "event"
    },
    {
      "anonymous": false,
      "inputs": [
        {
          "indexed": true,
          "internalType": "uint256",
          "name": "projectId",
          "type": "uint256"
        },
        {
          "indexed": false,
          "internalType": "string",
          "name": "projectName",
          "type": "string"
        },
        {
          "indexed": false,
          "internalType": "string",
          "name": "location",
          "type": "string"
        },
        {
          "indexed": false,
          "internalType": "uint256",
          "name": "budgetPeso",
          "type": "uint256"
        },
        {
          "indexed": false,
          "internalType": "string",
          "name": "timelineStart",
          "type": "string"
        },
        {
          "indexed": false,
          "internalType": "string",
          "name": "timelineEnd",
          "type": "string"
        },
        {
          "indexed": false,
          "internalType": "string",
          "name": "proposalLink",
          "type": "string"
        }
      ],
      "name": "ProjectCreated",
      "type": "event"
    },
    {
      "anonymous": false,
      "inputs": [
        {
          "indexed": true,
          "internalType": "uint256",
          "name": "projectId",
          "type": "uint256"
        },
        {
          "indexed": false,
          "internalType": "enum Projects.Status",
          "name": "oldStatus",
          "type": "uint8"
        },
        {
          "indexed": false,
          "internalType": "enum Projects.Status",
          "name": "newStatus",
          "type": "uint8"
        }
      ],
      "name": "ProjectStatusUpdated",
      "type": "event"
    },
    {
      "anonymous": false,
      "inputs": [
        {
          "indexed": true,
          "internalType": "address",
          "name": "from",
          "type": "address"
        },
        {
          "indexed": true,
          "internalType": "address",
          "name": "to",
          "type": "address"
        },
        {
          "indexed": true,
          "internalType": "uint256",
          "name": "tokenId",
          "type": "uint256"
        }
      ],
      "name": "Transfer",
      "type": "event"
    },
    {
      "inputs": [
        {
          "internalType": "address",
          "name": "to",
          "type": "address"
        },
        {
          "internalType": "uint256",
          "name": "tokenId",
          "type": "uint256"
        }
      ],
      "name": "approve",
      "outputs": [],
      "stateMutability": "nonpayable",
      "type": "function"
    },
    {
      "inputs": [
        {
          "internalType": "address",
          "name": "owner",
          "type": "address"
        }
      ],
      "name": "balanceOf",
      "outputs": [
        {
          "internalType": "uint256",
          "name": "",
          "type": "uint256"
        }
      ],
      "stateMutability": "view",
      "type": "function"
    },
    {
      "inputs": [
        {
          "internalType": "string",
          "name": "_name",
          "type": "string"
        },
        {
          "internalType": "string",
          "name": "_location",
          "type": "string"
        },
        {
          "internalType": "uint256",
          "name": "_budget",
          "type": "uint256"
        },
        {
          "internalType": "address[]",
          "name": "_signatories",
          "type": "address[]"
        },
        {
          "internalType": "address[]",
          "name": "_engineers",
          "type": "address[]"
        },
        {
          "internalType": "address[]",
          "name": "_contractors",
          "type": "address[]"
        },
        {
          "internalType": "string",
          "name": "_timelineStart",
          "type": "string"
        },
        {
          "internalType": "string",
          "name": "_timelineEnd",
          "type": "string"
        },
        {
          "internalType": "string",
          "name": "_proposalLink",
          "type": "string"
        }
      ],
      "name": "createProjectNft",
      "outputs": [],
      "stateMutability": "nonpayable",
      "type": "function"
    },
    {
      "inputs": [
        {
          "internalType": "uint256",
          "name": "tokenId",
          "type": "uint256"
        }
      ],
      "name": "getApproved",
      "outputs": [
        {
          "internalType": "address",
          "name": "",
          "type": "address"
        }
      ],
      "stateMutability": "view",
      "type": "function"
    },
    {
      "inputs": [],
      "name": "i_owner",
      "outputs": [
        {
          "internalType": "address",
          "name": "",
          "type": "address"
        }
      ],
      "stateMutability": "view",
      "type": "function"
    },
    {
      "inputs": [
        {
          "internalType": "address",
          "name": "owner",
          "type": "address"
        },
        {
          "internalType": "address",
          "name": "operator",
          "type": "address"
        }
      ],
      "name": "isApprovedForAll",
      "outputs": [
        {
          "internalType": "bool",
          "name": "",
          "type": "bool"
        }
      ],
      "stateMutability": "view",
      "type": "function"
    },
    {
      "inputs": [],
      "name": "name",
      "outputs": [
        {
          "internalType": "string",
          "name": "",
          "type": "string"
        }
      ],
      "stateMutability": "view",
      "type": "function"
    },
    {
      "inputs": [],
      "name": "nextProjectId",
      "outputs": [
        {
          "internalType": "uint256",
          "name": "",
          "type": "uint256"
        }
      ],
      "stateMutability": "view",
      "type": "function"
    },
    {
      "inputs": [
        {
          "internalType": "uint256",
          "name": "tokenId",
          "type": "uint256"
        }
      ],
      "name": "ownerOf",
      "outputs": [
        {
          "internalType": "address",
          "name": "",
          "type": "address"
        }
      ],
      "stateMutability": "view",
      "type": "function"
    },
    {
      "inputs": [
        {
          "internalType": "uint256",
          "name": "",
          "type": "uint256"
        }
      ],
      "name": "projects",
      "outputs": [
        {
          "internalType": "uint256",
          "name": "projectId",
          "type": "uint256"
        },
        {
          "internalType": "string",
          "name": "projectName",
          "type": "string"
        },
        {
          "internalType": "string",
          "name": "location",
          "type": "string"
        },
        {
          "internalType": "uint256",
          "name": "budgetPeso",
          "type": "uint256"
        },
        {
          "internalType": "string",
          "name": "timelineStart",
          "type": "string"
        },
        {
          "internalType": "string",
          "name": "timelineEnd",
          "type": "string"
        },
        {
          "internalType": "enum Projects.Status",
          "name": "status",
          "type": "uint8"
        },
        {
          "internalType": "string",
          "name": "proposalLink",
          "type": "string"
        }
      ],
      "stateMutability": "view",
      "type": "function"
    },
    {
      "inputs": [
        {
          "internalType": "address",
          "name": "from",
          "type": "address"
        },
        {
          "internalType": "address",
          "name": "to",
          "type": "address"
        },
        {
          "internalType": "uint256",
          "name": "tokenId",
          "type": "uint256"
        }
      ],
      "name": "safeTransferFrom",
      "outputs": [],
      "stateMutability": "nonpayable",
      "type": "function"
    },
    {
      "inputs": [
        {
          "internalType": "address",
          "name": "from",
          "type": "address"
        },
        {
          "internalType": "address",
          "name": "to",
          "type": "address"
        },
        {
          "internalType": "uint256",
          "name": "tokenId",
          "type": "uint256"
        },
        {
          "internalType": "bytes",
          "name": "data",
          "type": "bytes"
        }
      ],
      "name": "safeTransferFrom",
      "outputs": [],
      "stateMutability": "nonpayable",
      "type": "function"
    },
    {
      "inputs": [
        {
          "internalType": "address",
          "name": "operator",
          "type": "address"
        },
        {
          "internalType": "bool",
          "name": "approved",
          "type": "bool"
        }
      ],
      "name": "setApprovalForAll",
      "outputs": [],
      "stateMutability": "nonpayable",
      "type": "function"
    },
    {
      "inputs": [
        {
          "internalType": "bytes4",
          "name": "interfaceId",
          "type": "bytes4"
        }
      ],
      "name": "supportsInterface",
      "outputs": [
        {
          "internalType": "bool",
          "name": "",
          "type": "bool"
        }
      ],
      "stateMutability": "view",
      "type": "function"
    },
    {
      "inputs": [],
      "name": "symbol",
      "outputs": [
        {
          "internalType": "string",
          "name": "",
          "type": "string"
        }
      ],
      "stateMutability": "view",
      "type": "function"
    },
    {
      "inputs": [
        {
          "internalType": "uint256",
          "name": "tokenId",
          "type": "uint256"
        }
      ],
      "name": "tokenURI",
      "outputs": [
        {
          "internalType": "string",
          "name": "",
          "type": "string"
        }
      ],
      "stateMutability": "view",
      "type": "function"
    },
    {
      "inputs": [
        {
          "internalType": "address",
          "name": "from",
          "type": "address"
        },
        {
          "internalType": "address",
          "name": "to",
          "type": "address"
        },
        {
          "internalType": "uint256",
          "name": "tokenId",
          "type": "uint256"
        }
      ],
      "name": "transferFrom",
      "outputs": [],
      "stateMutability": "nonpayable",
      "type": "function"
    },
    {
      "inputs": [
        {
          "internalType": "uint256",
          "name": "_projectId",
          "type": "uint256"
        },
        {
          "internalType": "enum Projects.Status",
          "name": "_status",
          "type": "uint8"
        }
      ],
      "name": "updateStatus",
      "outputs": [],
      "stateMutability": "nonpayable",
      "type": "function"
    }
  ],
  "bytecode": "0x60a06040526001600655348015610014575f5ffd5b506040518060400160405280600d81526020016c445057485f50524f4a4543545360981b81525060405180604001604052806005815260200164044505748560dc1b815250815f90816100679190610144565b5060016100748282610144565b50503360808190526040519091507f50146d0e3c60aa1d17a70635b05494f864e86144a2201275021014fbf08bafe2905f90a26101fe565b634e487b7160e01b5f52604160045260245ffd5b600181811c908216806100d457607f821691505b6020821081036100f257634e487b7160e01b5f52602260045260245ffd5b50919050565b601f82111561013f57805f5260205f20601f840160051c8101602085101561011d5750805b601f840160051c820191505b8181101561013c575f8155600101610129565b50505b505050565b81516001600160401b0381111561015d5761015d6100ac565b6101718161016b84546100c0565b846100f8565b6020601f8211600181146101a3575f831561018c5750848201515b5f19600385901b1c1916600184901b17845561013c565b5f84815260208120601f198516915b828110156101d257878501518255602094850194600190920191016101b2565b50848210156101ef57868401515f19600387901b60f8161c191681555b50505050600190811b01905550565b608051611a7561021d5f395f818161026c015261090e0152611a755ff3fe608060405234801561000f575f5ffd5b5060043610610111575f3560e01c806370a082311161009e578063c87b56dd1161006e578063c87b56dd14610254578063dba6335f14610267578063df69023c1461028e578063e935b7b1146102a1578063e985e9c5146102aa575f5ffd5b806370a082311461020557806395d89b4114610226578063a22cb4651461022e578063b88d4fde14610241575f5ffd5b8063107046bd116100e4578063107046bd1461019257806323b872dd146101b95780633a1b3d31146101cc57806342842e0e146101df5780636352211e146101f2575f5ffd5b806301ffc9a71461011557806306fdde031461013d578063081812fc14610152578063095ea7b31461017d575b5f5ffd5b610128610123366004611270565b6102bd565b60405190151581526020015b60405180910390f35b61014561030e565b60405161013491906112b9565b6101656101603660046112cb565b61039d565b6040516001600160a01b039091168152602001610134565b61019061018b3660046112fd565b6103c4565b005b6101a56101a03660046112cb565b6103d3565b604051610134989796959493929190611359565b6101906101c73660046113e3565b6106ba565b6101906101da36600461141d565b610748565b6101906101ed3660046113e3565b6107f2565b6101656102003660046112cb565b610811565b61021861021336600461144e565b61081b565b604051908152602001610134565b610145610860565b61019061023c366004611467565b61086f565b61019061024f366004611531565b61087a565b6101456102623660046112cb565b610892565b6101657f000000000000000000000000000000000000000000000000000000000000000081565b61019061029c36600461164b565b610903565b61021860065481565b6101286102b83660046117ae565b610b24565b5f6001600160e01b031982166380ac58cd60e01b14806102ed57506001600160e01b03198216635b5e139f60e01b145b8061030857506301ffc9a760e01b6001600160e01b03198316145b92915050565b60605f805461031c906117df565b80601f0160208091040260200160405190810160405280929190818152602001828054610348906117df565b80156103935780601f1061036a57610100808354040283529160200191610393565b820191905f5260205f20905b81548152906001019060200180831161037657829003601f168201915b5050505050905090565b5f6103a782610b51565b505f828152600460205260409020546001600160a01b0316610308565b6103cf828233610b89565b5050565b60076020525f9081526040902080546001820180549192916103f4906117df565b80601f0160208091040260200160405190810160405280929190818152602001828054610420906117df565b801561046b5780601f106104425761010080835404028352916020019161046b565b820191905f5260205f20905b81548152906001019060200180831161044e57829003601f168201915b505050505090806002018054610480906117df565b80601f01602080910402602001604051908101604052809291908181526020018280546104ac906117df565b80156104f75780601f106104ce576101008083540402835291602001916104f7565b820191905f5260205f20905b8154815290600101906020018083116104da57829003601f168201915b505050505090806003015490806007018054610512906117df565b80601f016020809104026020016040519081016040528092919081815260200182805461053e906117df565b80156105895780601f1061056057610100808354040283529160200191610589565b820191905f5260205f20905b81548152906001019060200180831161056c57829003601f168201915b50505050509080600801805461059e906117df565b80601f01602080910402602001604051908101604052809291908181526020018280546105ca906117df565b80156106155780601f106105ec57610100808354040283529160200191610615565b820191905f5260205f20905b8154815290600101906020018083116105f857829003601f168201915b5050506009840154600a85018054949560ff909216949193509150610639906117df565b80601f0160208091040260200160405190810160405280929190818152602001828054610665906117df565b80156106b05780601f10610687576101008083540402835291602001916106b0565b820191905f5260205f20905b81548152906001019060200180831161069357829003601f168201915b5050505050905088565b6001600160a01b0382166106e857604051633250574960e11b81525f60048201526024015b60405180910390fd5b5f6106f4838333610b96565b9050836001600160a01b0316816001600160a01b031614610742576040516364283d7b60e01b81526001600160a01b03808616600483015260248201849052821660448201526064016106df565b50505050565b5f8281526007602052604081206003015483910361077c57604051631cfe4d4160e31b8152600481018290526024016106df565b5f838152600760205260409020600901805460ff811691849160ff191660018360048111156107ad576107ad611325565b0217905550837f15a4a29eccf92a0bbf94f24a6840487aa0226f7fb02d3402f1f86b3360bdfc6a82856040516107e4929190611817565b60405180910390a250505050565b61080c83838360405180602001604052805f81525061087a565b505050565b5f61030882610b51565b5f6001600160a01b038216610845576040516322718ad960e21b81525f60048201526024016106df565b506001600160a01b03165f9081526003602052604090205490565b60606001805461031c906117df565b6103cf338383610c88565b6108858484846106ba565b6107423385858585610d26565b606061089d82610b51565b505f6108b360408051602081019091525f815290565b90505f8151116108d15760405180602001604052805f8152506108fc565b806108db84610e4e565b6040516020016108ec929190611849565b6040516020818303038152906040525b9392505050565b336001600160a01b037f0000000000000000000000000000000000000000000000000000000000000000161461094e57604051633ed4250360e11b81523360048201526024016106df565b60405180610160016040528060065481526020018a81526020018981526020018881526020018781526020018681526020018581526020018481526020018381526020015f60048111156109a4576109a4611325565b815260209081018390526006545f9081526007825260409020825181559082015160018201906109d490826118a1565b50604082015160028201906109e990826118a1565b506060820151600382015560808201518051610a0f9160048401916020909101906111e1565b5060a08201518051610a2b9160058401916020909101906111e1565b5060c08201518051610a479160068401916020909101906111e1565b5060e08201516007820190610a5c90826118a1565b506101008201516008820190610a7290826118a1565b5061012082015160098201805460ff19166001836004811115610a9757610a97611325565b0217905550610140820151600a820190610ab190826118a1565b50905050610ac133600654610edd565b6006547f8deb110bcc3f1bc11a2cca5dd088c43f03d8c5cd8d0ee7269dd518ac1c5877848a8a8a878787604051610afd9695949392919061195b565b60405180910390a260068054905f610b14836119ce565b9190505550505050505050505050565b6001600160a01b039182165f90815260056020908152604080832093909416825291909152205460ff1690565b5f818152600260205260408120546001600160a01b03168061030857604051637e27328960e01b8152600481018490526024016106df565b61080c8383836001610f3e565b5f828152600260205260408120546001600160a01b0390811690831615610bc257610bc2818486611042565b6001600160a01b03811615610bfc57610bdd5f855f5f610f3e565b6001600160a01b0381165f90815260036020526040902080545f190190555b6001600160a01b03851615610c2a576001600160a01b0385165f908152600360205260409020805460010190555b5f8481526002602052604080822080546001600160a01b0319166001600160a01b0389811691821790925591518793918516917fddf252ad1be2c89b69c2b068fc378daa952ba7f163c4a11628f55a4df523b3ef91a4949350505050565b6001600160a01b038216610cba57604051630b61174360e31b81526001600160a01b03831660048201526024016106df565b6001600160a01b038381165f81815260056020908152604080832094871680845294825291829020805460ff191686151590811790915591519182527f17307eab39ab6107e8899845ad3d59bd9653f200f220920489ca2b5937696c31910160405180910390a3505050565b6001600160a01b0383163b15610e4757604051630a85bd0160e11b81526001600160a01b0384169063150b7a0290610d689088908890879087906004016119f2565b6020604051808303815f875af1925050508015610da2575060408051601f3d908101601f19168201909252610d9f91810190611a24565b60015b610e09573d808015610dcf576040519150601f19603f3d011682016040523d82523d5f602084013e610dd4565b606091505b5080515f03610e0157604051633250574960e11b81526001600160a01b03851660048201526024016106df565b805160208201fd5b6001600160e01b03198116630a85bd0160e11b14610e4557604051633250574960e11b81526001600160a01b03851660048201526024016106df565b505b5050505050565b60605f610e5a836110a6565b60010190505f816001600160401b03811115610e7857610e78611495565b6040519080825280601f01601f191660200182016040528015610ea2576020820181803683370190505b5090508181016020015b5f19016f181899199a1a9b1b9c1cb0b131b232b360811b600a86061a8153600a8504945084610eac57509392505050565b6001600160a01b038216610f0657604051633250574960e11b81525f60048201526024016106df565b5f610f1283835f610b96565b90506001600160a01b0381161561080c576040516339e3563760e11b81525f60048201526024016106df565b8080610f5257506001600160a01b03821615155b15611013575f610f6184610b51565b90506001600160a01b03831615801590610f8d5750826001600160a01b0316816001600160a01b031614155b8015610fa05750610f9e8184610b24565b155b15610fc95760405163a9fbf51f60e01b81526001600160a01b03841660048201526024016106df565b81156110115783856001600160a01b0316826001600160a01b03167f8c5be1e5ebec7d5bd14f71427d1e84f3dd0314c0f7b2291e5b200ac8c7c3b92560405160405180910390a45b505b50505f90815260046020526040902080546001600160a01b0319166001600160a01b0392909216919091179055565b61104d83838361117d565b61080c576001600160a01b03831661107b57604051637e27328960e01b8152600481018290526024016106df565b60405163177e802f60e01b81526001600160a01b0383166004820152602481018290526044016106df565b5f8072184f03e93ff9f4daa797ed6e38ed64bf6a1f0160401b83106110e45772184f03e93ff9f4daa797ed6e38ed64bf6a1f0160401b830492506040015b6d04ee2d6d415b85acef81000000008310611110576d04ee2d6d415b85acef8100000000830492506020015b662386f26fc10000831061112e57662386f26fc10000830492506010015b6305f5e1008310611146576305f5e100830492506008015b612710831061115a57612710830492506004015b6064831061116c576064830492506002015b600a83106103085760010192915050565b5f6001600160a01b038316158015906111d95750826001600160a01b0316846001600160a01b031614806111b657506111b68484610b24565b806111d957505f828152600460205260409020546001600160a01b038481169116145b949350505050565b828054828255905f5260205f20908101928215611234579160200282015b8281111561123457825182546001600160a01b0319166001600160a01b039091161782556020909201916001909101906111ff565b50611240929150611244565b5090565b5b80821115611240575f8155600101611245565b6001600160e01b03198116811461126d575f5ffd5b50565b5f60208284031215611280575f5ffd5b81356108fc81611258565b5f81518084528060208401602086015e5f602082860101526020601f19601f83011685010191505092915050565b602081525f6108fc602083018461128b565b5f602082840312156112db575f5ffd5b5035919050565b80356001600160a01b03811681146112f8575f5ffd5b919050565b5f5f6040838503121561130e575f5ffd5b611317836112e2565b946020939093013593505050565b634e487b7160e01b5f52602160045260245ffd5b6005811061135557634e487b7160e01b5f52602160045260245ffd5b9052565b88815261010060208201525f61137361010083018a61128b565b8281036040840152611385818a61128b565b9050876060840152828103608084015261139f818861128b565b905082810360a08401526113b3818761128b565b90506113c260c0840186611339565b82810360e08401526113d4818561128b565b9b9a5050505050505050505050565b5f5f5f606084860312156113f5575f5ffd5b6113fe846112e2565b925061140c602085016112e2565b929592945050506040919091013590565b5f5f6040838503121561142e575f5ffd5b82359150602083013560058110611443575f5ffd5b809150509250929050565b5f6020828403121561145e575f5ffd5b6108fc826112e2565b5f5f60408385031215611478575f5ffd5b611481836112e2565b915060208301358015158114611443575f5ffd5b634e487b7160e01b5f52604160045260245ffd5b604051601f8201601f191681016001600160401b03811182821017156114d1576114d1611495565b604052919050565b5f5f6001600160401b038411156114f2576114f2611495565b50601f8301601f1916602001611507816114a9565b91505082815283838301111561151b575f5ffd5b828260208301375f602084830101529392505050565b5f5f5f5f60808587031215611544575f5ffd5b61154d856112e2565b935061155b602086016112e2565b92506040850135915060608501356001600160401b0381111561157c575f5ffd5b8501601f8101871361158c575f5ffd5b61159b878235602084016114d9565b91505092959194509250565b5f82601f8301126115b6575f5ffd5b6108fc838335602085016114d9565b5f82601f8301126115d4575f5ffd5b81356001600160401b038111156115ed576115ed611495565b8060051b6115fd602082016114a9565b91825260208185018101929081019086841115611618575f5ffd5b6020860192505b8383101561164157611630836112e2565b82526020928301929091019061161f565b9695505050505050565b5f5f5f5f5f5f5f5f5f6101208a8c031215611664575f5ffd5b89356001600160401b03811115611679575f5ffd5b6116858c828d016115a7565b99505060208a01356001600160401b038111156116a0575f5ffd5b6116ac8c828d016115a7565b98505060408a0135965060608a01356001600160401b038111156116ce575f5ffd5b6116da8c828d016115c5565b96505060808a01356001600160401b038111156116f5575f5ffd5b6117018c828d016115c5565b95505060a08a01356001600160401b0381111561171c575f5ffd5b6117288c828d016115c5565b94505060c08a01356001600160401b03811115611743575f5ffd5b61174f8c828d016115a7565b93505060e08a01356001600160401b0381111561176a575f5ffd5b6117768c828d016115a7565b9250506101008a01356001600160401b03811115611792575f5ffd5b61179e8c828d016115a7565b9150509295985092959850929598565b5f5f604083850312156117bf575f5ffd5b6117c8836112e2565b91506117d6602084016112e2565b90509250929050565b600181811c908216806117f357607f821691505b60208210810361181157634e487b7160e01b5f52602260045260245ffd5b50919050565b604081016118258285611339565b6108fc6020830184611339565b5f81518060208401855e5f93019283525090919050565b5f6111d96118578386611832565b84611832565b601f82111561080c57805f5260205f20601f840160051c810160208510156118825750805b601f840160051c820191505b81811015610e47575f815560010161188e565b81516001600160401b038111156118ba576118ba611495565b6118ce816118c884546117df565b8461185d565b6020601f821160018114611900575f83156118e95750848201515b5f19600385901b1c1916600184901b178455610e47565b5f84815260208120601f198516915b8281101561192f578785015182556020948501946001909201910161190f565b508482101561194c57868401515f19600387901b60f8161c191681555b50505050600190811b01905550565b60c081525f61196d60c083018961128b565b828103602084015261197f818961128b565b90508660408401528281036060840152611999818761128b565b905082810360808401526119ad818661128b565b905082810360a08401526119c1818561128b565b9998505050505050505050565b5f600182016119eb57634e487b7160e01b5f52601160045260245ffd5b5060010190565b6001600160a01b03858116825284166020820152604081018390526080606082018190525f906116419083018461128b565b5f60208284031215611a34575f5ffd5b81516108fc8161125856fea2646970667358221220102c44365fc18674a96c0a4c18fb89b95e58af6a30e30d6cc653931167faf87a64736f6c634300081c0033",
  "linkReferences": {},
  "deployedLinkReferences": {},
  "immutableReferences": {
    "6399": [
      {
        "length": 32,
        "start": 620
      },
      {
        "length": 32,
        "start": 2318
      }
    ]
  },
  "inputSourceName": "project/contracts/Projects.sol",
  "buildInfoId": "solc-0_8_28-59bf7f7a58a3615dc464e069f73c7459246065b0"
}