{
  "_format": "hh3-artifact-1",
  "contractName": "GovToken",
  "sourceName": "contracts/GovToken.sol",
  "abi": [
    {
      "inputs": [],
      "stateMutability": "nonpayable",
      "type": "constructor"
    },
    {
      "inputs": [
        {
          "internalType": "address",
          "name": "spender",
          "type": "address"
        },
        {
          "internalType": "uint256",
          "name": "allowance",
          "type": "uint256"
        },
        {
          "internalType": "uint256",
          "name": "needed",
          "type": "uint256"
        }
      ],
      "name": "ERC20InsufficientAllowance",
      "type": "error"
    },
    {
      "inputs": [
        {
          "internalType": "address",
          "name": "sender",
          "type": "address"
        },
        {
          "internalType": "uint256",
          "name": "balance",
          "type": "uint256"
        },
        {
          "internalType": "uint256",
          "name": "needed",
          "type": "uint256"
        }
      ],
      "name": "ERC20InsufficientBalance",
      "type": "error"
    },
    {
      "inputs": [
        {
          "internalType": "address",
          "name": "approver",
          "type": "address"
        }
      ],
      "name": "ERC20InvalidApprover",
      "type": "error"
    },
    {
      "inputs": [
        {
          "internalType": "address",
          "name": "receiver",
          "type": "address"
        }
      ],
      "name": "ERC20InvalidReceiver",
      "type": "error"
    },
    {
      "inputs": [
        {
          "internalType": "address",
          "name": "sender",
          "type": "address"
        }
      ],
      "name": "ERC20InvalidSender",
      "type": "error"
    },
    {
      "inputs": [
        {
          "internalType": "address",
          "name": "spender",
          "type": "address"
        }
      ],
      "name": "ERC20InvalidSpender",
      "type": "error"
    },
    {
      "inputs": [
        {
          "internalType": "address",
          "name": "_ownerAddress",
          "type": "address"
        }
      ],
      "name": "notOwner",
      "type": "error"
    },
    {
      "anonymous": false,
      "inputs": [
        {
          "indexed": true,
          "internalType": "address",
          "name": "owner",
          "type": "address"
        },
        {
          "indexed": true,
          "internalType": "address",
          "name": "spender",
          "type": "address"
        },
        {
          "indexed": false,
          "internalType": "uint256",
          "name": "value",
          "type": "uint256"
        }
      ],
      "name": "Approval",
      "type": "event"
    },
    {
      "anonymous": false,
      "inputs": [
        {
          "indexed": true,
          "internalType": "address",
          "name": "from",
          "type": "address"
        },
        {
          "indexed": true,
          "internalType": "address",
          "name": "to",
          "type": "address"
        },
        {
          "indexed": false,
          "internalType": "uint256",
          "name": "value",
          "type": "uint256"
        }
      ],
      "name": "Transfer",
      "type": "event"
    },
    {
      "inputs": [
        {
          "internalType": "address[]",
          "name": "_approverAddress",
          "type": "address[]"
        }
      ],
      "name": "addApprovers",
      "outputs": [],
      "stateMutability": "nonpayable",
      "type": "function"
    },
    {
      "inputs": [
        {
          "internalType": "address",
          "name": "owner",
          "type": "address"
        },
        {
          "internalType": "address",
          "name": "spender",
          "type": "address"
        }
      ],
      "name": "allowance",
      "outputs": [
        {
          "internalType": "uint256",
          "name": "",
          "type": "uint256"
        }
      ],
      "stateMutability": "view",
      "type": "function"
    },
    {
      "inputs": [
        {
          "internalType": "address",
          "name": "spender",
          "type": "address"
        },
        {
          "internalType": "uint256",
          "name": "value",
          "type": "uint256"
        }
      ],
      "name": "approve",
      "outputs": [
        {
          "internalType": "bool",
          "name": "",
          "type": "bool"
        }
      ],
      "stateMutability": "nonpayable",
      "type": "function"
    },
    {
      "inputs": [
        {
          "internalType": "uint256",
          "name": "",
          "type": "uint256"
        }
      ],
      "name": "approverAddress",
      "outputs": [
        {
          "internalType": "address",
          "name": "",
          "type": "address"
        }
      ],
      "stateMutability": "view",
      "type": "function"
    },
    {
      "inputs": [
        {
          "internalType": "address",
          "name": "account",
          "type": "address"
        }
      ],
      "name": "balanceOf",
      "outputs": [
        {
          "internalType": "uint256",
          "name": "",
          "type": "uint256"
        }
      ],
      "stateMutability": "view",
      "type": "function"
    },
    {
      "inputs": [],
      "name": "decimals",
      "outputs": [
        {
          "internalType": "uint8",
          "name": "",
          "type": "uint8"
        }
      ],
      "stateMutability": "view",
      "type": "function"
    },
    {
      "inputs": [],
      "name": "destributeToken",
      "outputs": [],
      "stateMutability": "nonpayable",
      "type": "function"
    },
    {
      "inputs": [],
      "name": "i_owner",
      "outputs": [
        {
          "internalType": "address",
          "name": "",
          "type": "address"
        }
      ],
      "stateMutability": "view",
      "type": "function"
    },
    {
      "inputs": [],
      "name": "name",
      "outputs": [
        {
          "internalType": "string",
          "name": "",
          "type": "string"
        }
      ],
      "stateMutability": "view",
      "type": "function"
    },
    {
      "inputs": [],
      "name": "returnContractBalance",
      "outputs": [
        {
          "internalType": "uint256",
          "name": "",
          "type": "uint256"
        }
      ],
      "stateMutability": "view",
      "type": "function"
    },
    {
      "inputs": [],
      "name": "symbol",
      "outputs": [
        {
          "internalType": "string",
          "name": "",
          "type": "string"
        }
      ],
      "stateMutability": "view",
      "type": "function"
    },
    {
      "inputs": [],
      "name": "totalSupply",
      "outputs": [
        {
          "internalType": "uint256",
          "name": "",
          "type": "uint256"
        }
      ],
      "stateMutability": "view",
      "type": "function"
    },
    {
      "inputs": [
        {
          "internalType": "address",
          "name": "to",
          "type": "address"
        },
        {
          "internalType": "uint256",
          "name": "value",
          "type": "uint256"
        }
      ],
      "name": "transfer",
      "outputs": [
        {
          "internalType": "bool",
          "name": "",
          "type": "bool"
        }
      ],
      "stateMutability": "nonpayable",
      "type": "function"
    },
    {
      "inputs": [
        {
          "internalType": "address",
          "name": "from",
          "type": "address"
        },
        {
          "internalType": "address",
          "name": "to",
          "type": "address"
        },
        {
          "internalType": "uint256",
          "name": "value",
          "type": "uint256"
        }
      ],
      "name": "transferFrom",
      "outputs": [
        {
          "internalType": "bool",
          "name": "",
          "type": "bool"
        }
      ],
      "stateMutability": "nonpayable",
      "type": "function"
    }
  ],
  "bytecode": "0x60a06040908152305f90815260208190522054600755348015610020575f5ffd5b506040518060400160405280600e81526020016d1513d2d15397d054141493d5905360921b815250604051806040016040528060078152602001661512d39414959360ca1b8152508160039081610077919061029d565b506004610084828261029d565b505050610099306107d06100a260201b60201c565b3360805261037c565b6001600160a01b0382166100d05760405163ec442f0560e01b81525f60048201526024015b60405180910390fd5b6100db5f83836100df565b5050565b6001600160a01b038316610109578060025f8282546100fe9190610357565b909155506101799050565b6001600160a01b0383165f908152602081905260409020548181101561015b5760405163391434e360e21b81526001600160a01b038516600482015260248101829052604481018390526064016100c7565b6001600160a01b0384165f9081526020819052604090209082900390555b6001600160a01b038216610195576002805482900390556101b3565b6001600160a01b0382165f9081526020819052604090208054820190555b816001600160a01b0316836001600160a01b03167fddf252ad1be2c89b69c2b068fc378daa952ba7f163c4a11628f55a4df523b3ef836040516101f891815260200190565b60405180910390a3505050565b634e487b7160e01b5f52604160045260245ffd5b600181811c9082168061022d57607f821691505b60208210810361024b57634e487b7160e01b5f52602260045260245ffd5b50919050565b601f82111561029857805f5260205f20601f840160051c810160208510156102765750805b601f840160051c820191505b81811015610295575f8155600101610282565b50505b505050565b81516001600160401b038111156102b6576102b6610205565b6102ca816102c48454610219565b84610251565b6020601f8211600181146102fc575f83156102e55750848201515b5f19600385901b1c1916600184901b178455610295565b5f84815260208120601f198516915b8281101561032b578785015182556020948501946001909201910161030b565b508482101561034857868401515f19600387901b60f8161c191681555b50505050600190811b01905550565b8082018082111561037657634e487b7160e01b5f52601160045260245ffd5b92915050565b608051610a686103a25f395f81816101fa0152818161035b01526104420152610a685ff3fe608060405234801561000f575f5ffd5b50600436106100e5575f3560e01c806370a0823111610088578063a9059cbb11610063578063a9059cbb146101e2578063dba6335f146101f5578063dd62ed3e1461021c578063fe4e5e2214610254575f5ffd5b806370a082311461019e5780638ce8dd06146101c657806395d89b41146101da575f5ffd5b806323b872dd116100c357806323b872dd1461013c578063313ce5671461014f578063665a76771461015e5780636a882d5114610189575f5ffd5b806306fdde03146100e9578063095ea7b31461010757806318160ddd1461012a575b5f5ffd5b6100f161025c565b6040516100fe91906107ae565b60405180910390f35b61011a6101153660046107fe565b6102ec565b60405190151581526020016100fe565b6002545b6040519081526020016100fe565b61011a61014a366004610826565b610305565b604051601281526020016100fe565b61017161016c366004610860565b610328565b6040516001600160a01b0390911681526020016100fe565b61019c61019736600461088b565b610350565b005b61012e6101ac366004610956565b6001600160a01b03165f9081526020819052604090205490565b305f9081526020819052604090205461012e565b6100f161041b565b61011a6101f03660046107fe565b61042a565b6101717f000000000000000000000000000000000000000000000000000000000000000081565b61012e61022a366004610976565b6001600160a01b039182165f90815260016020908152604080832093909416825291909152205490565b61019c610437565b60606003805461026b906109a7565b80601f0160208091040260200160405190810160405280929190818152602001828054610297906109a7565b80156102e25780601f106102b9576101008083540402835291602001916102e2565b820191905f5260205f20905b8154815290600101906020018083116102c557829003601f168201915b5050505050905090565b5f336102f98185856104cb565b60019150505b92915050565b5f336103128582856104dd565b61031d858585610559565b506001949350505050565b60058181548110610337575f80fd5b5f918252602090912001546001600160a01b0316905081565b336001600160a01b037f000000000000000000000000000000000000000000000000000000000000000016146103a057604051633ed4250360e11b81523360048201526024015b60405180910390fd5b6006545b81518110156104175760058282815181106103c1576103c16109df565b60209081029190910181015182546001810184555f93845291832090910180546001600160a01b0319166001600160a01b03909216919091179055600680549161040a83610a07565b90915550506001016103a4565b5050565b60606004805461026b906109a7565b5f336102f9818585610559565b336001600160a01b037f0000000000000000000000000000000000000000000000000000000000000000161461048257604051633ed4250360e11b8152336004820152602401610397565b5f5b6005548110156104c8576104c030600583815481106104a5576104a56109df565b5f918252602090912001546001600160a01b03166001610559565b600101610484565b50565b6104d883838360016105b6565b505050565b6001600160a01b038381165f908152600160209081526040808320938616835292905220545f19811015610553578181101561054557604051637dc7a0d960e11b81526001600160a01b03841660048201526024810182905260448101839052606401610397565b61055384848484035f6105b6565b50505050565b6001600160a01b03831661058257604051634b637e8f60e11b81525f6004820152602401610397565b6001600160a01b0382166105ab5760405163ec442f0560e01b81525f6004820152602401610397565b6104d8838383610688565b6001600160a01b0384166105df5760405163e602df0560e01b81525f6004820152602401610397565b6001600160a01b03831661060857604051634a1406b160e11b81525f6004820152602401610397565b6001600160a01b038085165f908152600160209081526040808320938716835292905220829055801561055357826001600160a01b0316846001600160a01b03167f8c5be1e5ebec7d5bd14f71427d1e84f3dd0314c0f7b2291e5b200ac8c7c3b9258460405161067a91815260200190565b60405180910390a350505050565b6001600160a01b0383166106b2578060025f8282546106a79190610a1f565b909155506107229050565b6001600160a01b0383165f90815260208190526040902054818110156107045760405163391434e360e21b81526001600160a01b03851660048201526024810182905260448101839052606401610397565b6001600160a01b0384165f9081526020819052604090209082900390555b6001600160a01b03821661073e5760028054829003905561075c565b6001600160a01b0382165f9081526020819052604090208054820190555b816001600160a01b0316836001600160a01b03167fddf252ad1be2c89b69c2b068fc378daa952ba7f163c4a11628f55a4df523b3ef836040516107a191815260200190565b60405180910390a3505050565b602081525f82518060208401528060208501604085015e5f604082850101526040601f19601f83011684010191505092915050565b80356001600160a01b03811681146107f9575f5ffd5b919050565b5f5f6040838503121561080f575f5ffd5b610818836107e3565b946020939093013593505050565b5f5f5f60608486031215610838575f5ffd5b610841846107e3565b925061084f602085016107e3565b929592945050506040919091013590565b5f60208284031215610870575f5ffd5b5035919050565b634e487b7160e01b5f52604160045260245ffd5b5f6020828403121561089b575f5ffd5b813567ffffffffffffffff8111156108b1575f5ffd5b8201601f810184136108c1575f5ffd5b803567ffffffffffffffff8111156108db576108db610877565b8060051b604051601f19603f830116810181811067ffffffffffffffff8211171561090857610908610877565b604052918252602081840181019290810187841115610925575f5ffd5b6020850194505b8385101561094b5761093d856107e3565b81526020948501940161092c565b509695505050505050565b5f60208284031215610966575f5ffd5b61096f826107e3565b9392505050565b5f5f60408385031215610987575f5ffd5b610990836107e3565b915061099e602084016107e3565b90509250929050565b600181811c908216806109bb57607f821691505b6020821081036109d957634e487b7160e01b5f52602260045260245ffd5b50919050565b634e487b7160e01b5f52603260045260245ffd5b634e487b7160e01b5f52601160045260245ffd5b5f60018201610a1857610a186109f3565b5060010190565b808201808211156102ff576102ff6109f356fea2646970667358221220ae42fccf387600f350ae8ea79628faccf7bdb840c634041b6620f4660f78f55b64736f6c634300081c0033",
  "linkReferences": {},
  "deployedLinkReferences": {},
  "immutableReferences": {
    "810": [
      {
        "length": 32,
        "start": 506
      },
      {
        "length": 32,
        "start": 859
      },
      {
        "length": 32,
        "start": 1090
      }
    ]
  },
  "inputSourceName": "project/contracts/GovToken.sol",
  "buildInfoId": "solc-0_8_28-063cda9b690f1d6f53c4fc65df119dedf1261889"
}