{
  "_format": "hh3-artifact-1",
  "contractName": "GovToken",
  "sourceName": "contracts/GovToken.sol",
  "abi": [
    {
      "inputs": [],
      "stateMutability": "nonpayable",
      "type": "constructor"
    },
    {
      "inputs": [
        {
          "internalType": "address",
          "name": "spender",
          "type": "address"
        },
        {
          "internalType": "uint256",
          "name": "allowance",
          "type": "uint256"
        },
        {
          "internalType": "uint256",
          "name": "needed",
          "type": "uint256"
        }
      ],
      "name": "ERC20InsufficientAllowance",
      "type": "error"
    },
    {
      "inputs": [
        {
          "internalType": "address",
          "name": "sender",
          "type": "address"
        },
        {
          "internalType": "uint256",
          "name": "balance",
          "type": "uint256"
        },
        {
          "internalType": "uint256",
          "name": "needed",
          "type": "uint256"
        }
      ],
      "name": "ERC20InsufficientBalance",
      "type": "error"
    },
    {
      "inputs": [
        {
          "internalType": "address",
          "name": "approver",
          "type": "address"
        }
      ],
      "name": "ERC20InvalidApprover",
      "type": "error"
    },
    {
      "inputs": [
        {
          "internalType": "address",
          "name": "receiver",
          "type": "address"
        }
      ],
      "name": "ERC20InvalidReceiver",
      "type": "error"
    },
    {
      "inputs": [
        {
          "internalType": "address",
          "name": "sender",
          "type": "address"
        }
      ],
      "name": "ERC20InvalidSender",
      "type": "error"
    },
    {
      "inputs": [
        {
          "internalType": "address",
          "name": "spender",
          "type": "address"
        }
      ],
      "name": "ERC20InvalidSpender",
      "type": "error"
    },
    {
      "inputs": [
        {
          "internalType": "address",
          "name": "_ownerAddress",
          "type": "address"
        }
      ],
      "name": "notOwner",
      "type": "error"
    },
    {
      "anonymous": false,
      "inputs": [
        {
          "indexed": true,
          "internalType": "address",
          "name": "owner",
          "type": "address"
        },
        {
          "indexed": true,
          "internalType": "address",
          "name": "spender",
          "type": "address"
        },
        {
          "indexed": false,
          "internalType": "uint256",
          "name": "value",
          "type": "uint256"
        }
      ],
      "name": "Approval",
      "type": "event"
    },
    {
      "anonymous": false,
      "inputs": [
        {
          "indexed": true,
          "internalType": "address",
          "name": "approver",
          "type": "address"
        }
      ],
      "name": "ApproverAdded",
      "type": "event"
    },
    {
      "anonymous": false,
      "inputs": [
        {
          "indexed": false,
          "internalType": "address[]",
          "name": "approvers",
          "type": "address[]"
        }
      ],
      "name": "ApproversBatchAdded",
      "type": "event"
    },
    {
      "anonymous": false,
      "inputs": [
        {
          "indexed": true,
          "internalType": "address",
          "name": "owner",
          "type": "address"
        }
      ],
      "name": "OwnerSet",
      "type": "event"
    },
    {
      "anonymous": false,
      "inputs": [
        {
          "indexed": true,
          "internalType": "address",
          "name": "to",
          "type": "address"
        },
        {
          "indexed": false,
          "internalType": "uint256",
          "name": "amount",
          "type": "uint256"
        }
      ],
      "name": "TokenDistributed",
      "type": "event"
    },
    {
      "anonymous": false,
      "inputs": [
        {
          "indexed": true,
          "internalType": "address",
          "name": "from",
          "type": "address"
        },
        {
          "indexed": true,
          "internalType": "address",
          "name": "to",
          "type": "address"
        },
        {
          "indexed": false,
          "internalType": "uint256",
          "name": "value",
          "type": "uint256"
        }
      ],
      "name": "Transfer",
      "type": "event"
    },
    {
      "inputs": [
        {
          "internalType": "address[]",
          "name": "_approverAddress",
          "type": "address[]"
        }
      ],
      "name": "addApprovers",
      "outputs": [],
      "stateMutability": "nonpayable",
      "type": "function"
    },
    {
      "inputs": [
        {
          "internalType": "address",
          "name": "owner",
          "type": "address"
        },
        {
          "internalType": "address",
          "name": "spender",
          "type": "address"
        }
      ],
      "name": "allowance",
      "outputs": [
        {
          "internalType": "uint256",
          "name": "",
          "type": "uint256"
        }
      ],
      "stateMutability": "view",
      "type": "function"
    },
    {
      "inputs": [
        {
          "internalType": "address",
          "name": "spender",
          "type": "address"
        },
        {
          "internalType": "uint256",
          "name": "value",
          "type": "uint256"
        }
      ],
      "name": "approve",
      "outputs": [
        {
          "internalType": "bool",
          "name": "",
          "type": "bool"
        }
      ],
      "stateMutability": "nonpayable",
      "type": "function"
    },
    {
      "inputs": [
        {
          "internalType": "uint256",
          "name": "",
          "type": "uint256"
        }
      ],
      "name": "approverAddress",
      "outputs": [
        {
          "internalType": "address",
          "name": "",
          "type": "address"
        }
      ],
      "stateMutability": "view",
      "type": "function"
    },
    {
      "inputs": [
        {
          "internalType": "address",
          "name": "account",
          "type": "address"
        }
      ],
      "name": "balanceOf",
      "outputs": [
        {
          "internalType": "uint256",
          "name": "",
          "type": "uint256"
        }
      ],
      "stateMutability": "view",
      "type": "function"
    },
    {
      "inputs": [],
      "name": "countApprovers",
      "outputs": [
        {
          "internalType": "uint256",
          "name": "",
          "type": "uint256"
        }
      ],
      "stateMutability": "view",
      "type": "function"
    },
    {
      "inputs": [],
      "name": "decimals",
      "outputs": [
        {
          "internalType": "uint8",
          "name": "",
          "type": "uint8"
        }
      ],
      "stateMutability": "view",
      "type": "function"
    },
    {
      "inputs": [],
      "name": "distributeToken",
      "outputs": [],
      "stateMutability": "nonpayable",
      "type": "function"
    },
    {
      "inputs": [],
      "name": "i_owner",
      "outputs": [
        {
          "internalType": "address",
          "name": "",
          "type": "address"
        }
      ],
      "stateMutability": "view",
      "type": "function"
    },
    {
      "inputs": [],
      "name": "name",
      "outputs": [
        {
          "internalType": "string",
          "name": "",
          "type": "string"
        }
      ],
      "stateMutability": "view",
      "type": "function"
    },
    {
      "inputs": [],
      "name": "returnContractBalance",
      "outputs": [
        {
          "internalType": "uint256",
          "name": "",
          "type": "uint256"
        }
      ],
      "stateMutability": "view",
      "type": "function"
    },
    {
      "inputs": [],
      "name": "symbol",
      "outputs": [
        {
          "internalType": "string",
          "name": "",
          "type": "string"
        }
      ],
      "stateMutability": "view",
      "type": "function"
    },
    {
      "inputs": [],
      "name": "totalSupply",
      "outputs": [
        {
          "internalType": "uint256",
          "name": "",
          "type": "uint256"
        }
      ],
      "stateMutability": "view",
      "type": "function"
    },
    {
      "inputs": [
        {
          "internalType": "address",
          "name": "to",
          "type": "address"
        },
        {
          "internalType": "uint256",
          "name": "value",
          "type": "uint256"
        }
      ],
      "name": "transfer",
      "outputs": [
        {
          "internalType": "bool",
          "name": "",
          "type": "bool"
        }
      ],
      "stateMutability": "nonpayable",
      "type": "function"
    },
    {
      "inputs": [
        {
          "internalType": "address",
          "name": "from",
          "type": "address"
        },
        {
          "internalType": "address",
          "name": "to",
          "type": "address"
        },
        {
          "internalType": "uint256",
          "name": "value",
          "type": "uint256"
        }
      ],
      "name": "transferFrom",
      "outputs": [
        {
          "internalType": "bool",
          "name": "",
          "type": "bool"
        }
      ],
      "stateMutability": "nonpayable",
      "type": "function"
    }
  ],
  "bytecode": "0x60a060405234801561000f575f5ffd5b506040518060400160405280600e81526020016d1513d2d15397d054141493d5905360921b815250604051806040016040528060078152602001661512d39414959360ca1b815250816003908161006691906102b6565b50600461007382826102b6565b505050610088306107d06100bb60201b60201c565b3360808190526040517f50146d0e3c60aa1d17a70635b05494f864e86144a2201275021014fbf08bafe2905f90a2610395565b6001600160a01b0382166100e95760405163ec442f0560e01b81525f60048201526024015b60405180910390fd5b6100f45f83836100f8565b5050565b6001600160a01b038316610122578060025f8282546101179190610370565b909155506101929050565b6001600160a01b0383165f90815260208190526040902054818110156101745760405163391434e360e21b81526001600160a01b038516600482015260248101829052604481018390526064016100e0565b6001600160a01b0384165f9081526020819052604090209082900390555b6001600160a01b0382166101ae576002805482900390556101cc565b6001600160a01b0382165f9081526020819052604090208054820190555b816001600160a01b0316836001600160a01b03167fddf252ad1be2c89b69c2b068fc378daa952ba7f163c4a11628f55a4df523b3ef8360405161021191815260200190565b60405180910390a3505050565b634e487b7160e01b5f52604160045260245ffd5b600181811c9082168061024657607f821691505b60208210810361026457634e487b7160e01b5f52602260045260245ffd5b50919050565b601f8211156102b157805f5260205f20601f840160051c8101602085101561028f5750805b601f840160051c820191505b818110156102ae575f815560010161029b565b50505b505050565b81516001600160401b038111156102cf576102cf61021e565b6102e3816102dd8454610232565b8461026a565b6020601f821160018114610315575f83156102fe5750848201515b5f19600385901b1c1916600184901b1784556102ae565b5f84815260208120601f198516915b828110156103445787850151825560209485019460019092019101610324565b508482101561036157868401515f19600387901b60f8161c191681555b50505050600190811b01905550565b8082018082111561038f57634e487b7160e01b5f52601160045260245ffd5b92915050565b608051610ba86103bb5f395f81816102160152818161034701526104650152610ba85ff3fe608060405234801561000f575f5ffd5b50600436106100f0575f3560e01c8063665a76771161009357806395d89b411161006357806395d89b41146101f6578063a9059cbb146101fe578063dba6335f14610211578063dd62ed3e14610238575f5ffd5b8063665a76771461017c5780636a882d51146101a757806370a08231146101ba5780638ce8dd06146101e2575f5ffd5b806323b872dd116100ce57806323b872dd146101475780632815db4d1461015a578063313ce567146101635780633427363714610172575f5ffd5b806306fdde03146100f4578063095ea7b31461011257806318160ddd14610135575b5f5ffd5b6100fc610270565b60405161010991906108a3565b60405180910390f35b6101256101203660046108f3565b610300565b6040519015158152602001610109565b6002545b604051908152602001610109565b61012561015536600461091b565b610319565b61013960065481565b60405160128152602001610109565b61017a61033c565b005b61018f61018a366004610955565b610432565b6040516001600160a01b039091168152602001610109565b61017a6101b5366004610980565b61045a565b6101396101c8366004610a4b565b6001600160a01b03165f9081526020819052604090205490565b305f90815260208190526040902054610139565b6100fc6105a4565b61012561020c3660046108f3565b6105b3565b61018f7f000000000000000000000000000000000000000000000000000000000000000081565b610139610246366004610a6b565b6001600160a01b039182165f90815260016020908152604080832093909416825291909152205490565b60606003805461027f90610a9c565b80601f01602080910402602001604051908101604052809291908181526020018280546102ab90610a9c565b80156102f65780601f106102cd576101008083540402835291602001916102f6565b820191905f5260205f20905b8154815290600101906020018083116102d957829003601f168201915b5050505050905090565b5f3361030d8185856105c0565b60019150505b92915050565b5f336103268582856105d2565b61033185858561064e565b506001949350505050565b336001600160a01b037f0000000000000000000000000000000000000000000000000000000000000000161461038c57604051633ed4250360e11b81523360048201526024015b60405180910390fd5b5f5b60055481101561042f576103ca30600583815481106103af576103af610ad4565b5f918252602090912001546001600160a01b0316600161064e565b600581815481106103dd576103dd610ad4565b5f9182526020918290200154604051600181526001600160a01b03909116917ff6f55ada4fbb9e2bc6813f97e749a30067f3c13a200ce783269b50e6419e8f64910160405180910390a260010161038e565b50565b60058181548110610441575f80fd5b5f918252602090912001546001600160a01b0316905081565b336001600160a01b037f000000000000000000000000000000000000000000000000000000000000000016146104a557604051633ed4250360e11b8152336004820152602401610383565b5f5b81518110156105695760058282815181106104c4576104c4610ad4565b60209081029190910181015182546001810184555f93845291832090910180546001600160a01b0319166001600160a01b03909216919091179055600680549161050d83610afc565b919050555081818151811061052457610524610ad4565b60200260200101516001600160a01b03167f835bddf1ceee4956e4329af9edf018523c1191238187a597453f6020bcadb04260405160405180910390a26001016104a7565b507ffe98690dbaf8b327ffd4916f764e7c652779b32152e369b00777d32e98f516a9816040516105999190610b14565b60405180910390a150565b60606004805461027f90610a9c565b5f3361030d81858561064e565b6105cd83838360016106ab565b505050565b6001600160a01b038381165f908152600160209081526040808320938616835292905220545f19811015610648578181101561063a57604051637dc7a0d960e11b81526001600160a01b03841660048201526024810182905260448101839052606401610383565b61064884848484035f6106ab565b50505050565b6001600160a01b03831661067757604051634b637e8f60e11b81525f6004820152602401610383565b6001600160a01b0382166106a05760405163ec442f0560e01b81525f6004820152602401610383565b6105cd83838361077d565b6001600160a01b0384166106d45760405163e602df0560e01b81525f6004820152602401610383565b6001600160a01b0383166106fd57604051634a1406b160e11b81525f6004820152602401610383565b6001600160a01b038085165f908152600160209081526040808320938716835292905220829055801561064857826001600160a01b0316846001600160a01b03167f8c5be1e5ebec7d5bd14f71427d1e84f3dd0314c0f7b2291e5b200ac8c7c3b9258460405161076f91815260200190565b60405180910390a350505050565b6001600160a01b0383166107a7578060025f82825461079c9190610b5f565b909155506108179050565b6001600160a01b0383165f90815260208190526040902054818110156107f95760405163391434e360e21b81526001600160a01b03851660048201526024810182905260448101839052606401610383565b6001600160a01b0384165f9081526020819052604090209082900390555b6001600160a01b03821661083357600280548290039055610851565b6001600160a01b0382165f9081526020819052604090208054820190555b816001600160a01b0316836001600160a01b03167fddf252ad1be2c89b69c2b068fc378daa952ba7f163c4a11628f55a4df523b3ef8360405161089691815260200190565b60405180910390a3505050565b602081525f82518060208401528060208501604085015e5f604082850101526040601f19601f83011684010191505092915050565b80356001600160a01b03811681146108ee575f5ffd5b919050565b5f5f60408385031215610904575f5ffd5b61090d836108d8565b946020939093013593505050565b5f5f5f6060848603121561092d575f5ffd5b610936846108d8565b9250610944602085016108d8565b929592945050506040919091013590565b5f60208284031215610965575f5ffd5b5035919050565b634e487b7160e01b5f52604160045260245ffd5b5f60208284031215610990575f5ffd5b813567ffffffffffffffff8111156109a6575f5ffd5b8201601f810184136109b6575f5ffd5b803567ffffffffffffffff8111156109d0576109d061096c565b8060051b604051601f19603f830116810181811067ffffffffffffffff821117156109fd576109fd61096c565b604052918252602081840181019290810187841115610a1a575f5ffd5b6020850194505b83851015610a4057610a32856108d8565b815260209485019401610a21565b509695505050505050565b5f60208284031215610a5b575f5ffd5b610a64826108d8565b9392505050565b5f5f60408385031215610a7c575f5ffd5b610a85836108d8565b9150610a93602084016108d8565b90509250929050565b600181811c90821680610ab057607f821691505b602082108103610ace57634e487b7160e01b5f52602260045260245ffd5b50919050565b634e487b7160e01b5f52603260045260245ffd5b634e487b7160e01b5f52601160045260245ffd5b5f60018201610b0d57610b0d610ae8565b5060010190565b602080825282518282018190525f918401906040840190835b81811015610b545783516001600160a01b0316835260209384019390920191600101610b2d565b509095945050505050565b8082018082111561031357610313610ae856fea2646970667358221220f5255b4f5f0fb360c0732c9cf693d48bf54679429a9a14e503e43f8256610fbc64736f6c634300081c0033",
  "linkReferences": {},
  "deployedLinkReferences": {},
  "immutableReferences": {
    "802": [
      {
        "length": 32,
        "start": 534
      },
      {
        "length": 32,
        "start": 839
      },
      {
        "length": 32,
        "start": 1125
      }
    ]
  },
  "inputSourceName": "project/contracts/GovToken.sol",
  "buildInfoId": "solc-0_8_28-da8f750dd2f2a7067e5f531bfa8066b7dbfaacb2"
}