{
  "_format": "hh3-artifact-1",
  "contractName": "Projects",
  "sourceName": "contracts/Projects.sol",
  "abi": [
    {
      "inputs": [],
      "stateMutability": "nonpayable",
      "type": "constructor"
    },
    {
      "inputs": [
        {
          "internalType": "address",
          "name": "sender",
          "type": "address"
        },
        {
          "internalType": "uint256",
          "name": "tokenId",
          "type": "uint256"
        },
        {
          "internalType": "address",
          "name": "owner",
          "type": "address"
        }
      ],
      "name": "ERC721IncorrectOwner",
      "type": "error"
    },
    {
      "inputs": [
        {
          "internalType": "address",
          "name": "operator",
          "type": "address"
        },
        {
          "internalType": "uint256",
          "name": "tokenId",
          "type": "uint256"
        }
      ],
      "name": "ERC721InsufficientApproval",
      "type": "error"
    },
    {
      "inputs": [
        {
          "internalType": "address",
          "name": "approver",
          "type": "address"
        }
      ],
      "name": "ERC721InvalidApprover",
      "type": "error"
    },
    {
      "inputs": [
        {
          "internalType": "address",
          "name": "operator",
          "type": "address"
        }
      ],
      "name": "ERC721InvalidOperator",
      "type": "error"
    },
    {
      "inputs": [
        {
          "internalType": "address",
          "name": "owner",
          "type": "address"
        }
      ],
      "name": "ERC721InvalidOwner",
      "type": "error"
    },
    {
      "inputs": [
        {
          "internalType": "address",
          "name": "receiver",
          "type": "address"
        }
      ],
      "name": "ERC721InvalidReceiver",
      "type": "error"
    },
    {
      "inputs": [
        {
          "internalType": "address",
          "name": "sender",
          "type": "address"
        }
      ],
      "name": "ERC721InvalidSender",
      "type": "error"
    },
    {
      "inputs": [
        {
          "internalType": "uint256",
          "name": "tokenId",
          "type": "uint256"
        }
      ],
      "name": "ERC721NonexistentToken",
      "type": "error"
    },
    {
      "inputs": [
        {
          "internalType": "uint256",
          "name": "_projectId",
          "type": "uint256"
        }
      ],
      "name": "ProjectNotExist",
      "type": "error"
    },
    {
      "inputs": [
        {
          "internalType": "address",
          "name": "_ownerAddress",
          "type": "address"
        }
      ],
      "name": "notOwner",
      "type": "error"
    },
    {
      "anonymous": false,
      "inputs": [
        {
          "indexed": true,
          "internalType": "address",
          "name": "owner",
          "type": "address"
        },
        {
          "indexed": true,
          "internalType": "address",
          "name": "approved",
          "type": "address"
        },
        {
          "indexed": true,
          "internalType": "uint256",
          "name": "tokenId",
          "type": "uint256"
        }
      ],
      "name": "Approval",
      "type": "event"
    },
    {
      "anonymous": false,
      "inputs": [
        {
          "indexed": true,
          "internalType": "address",
          "name": "owner",
          "type": "address"
        },
        {
          "indexed": true,
          "internalType": "address",
          "name": "operator",
          "type": "address"
        },
        {
          "indexed": false,
          "internalType": "bool",
          "name": "approved",
          "type": "bool"
        }
      ],
      "name": "ApprovalForAll",
      "type": "event"
    },
    {
      "anonymous": false,
      "inputs": [
        {
          "indexed": true,
          "internalType": "address",
          "name": "owner",
          "type": "address"
        }
      ],
      "name": "OwnerSet",
      "type": "event"
    },
    {
      "anonymous": false,
      "inputs": [
        {
          "indexed": true,
          "internalType": "uint256",
          "name": "projectId",
          "type": "uint256"
        },
        {
          "indexed": false,
          "internalType": "string",
          "name": "projectName",
          "type": "string"
        },
        {
          "indexed": false,
          "internalType": "string",
          "name": "location",
          "type": "string"
        },
        {
          "indexed": false,
          "internalType": "uint256",
          "name": "budgetPeso",
          "type": "uint256"
        },
        {
          "indexed": false,
          "internalType": "string",
          "name": "timelineStart",
          "type": "string"
        },
        {
          "indexed": false,
          "internalType": "string",
          "name": "timelineEnd",
          "type": "string"
        },
        {
          "indexed": false,
          "internalType": "string",
          "name": "proposalLink",
          "type": "string"
        }
      ],
      "name": "ProjectCreated",
      "type": "event"
    },
    {
      "anonymous": false,
      "inputs": [
        {
          "indexed": true,
          "internalType": "uint256",
          "name": "projectId",
          "type": "uint256"
        },
        {
          "indexed": false,
          "internalType": "enum Projects.Status",
          "name": "oldStatus",
          "type": "uint8"
        },
        {
          "indexed": false,
          "internalType": "enum Projects.Status",
          "name": "newStatus",
          "type": "uint8"
        }
      ],
      "name": "ProjectStatusUpdated",
      "type": "event"
    },
    {
      "anonymous": false,
      "inputs": [
        {
          "indexed": true,
          "internalType": "address",
          "name": "from",
          "type": "address"
        },
        {
          "indexed": true,
          "internalType": "address",
          "name": "to",
          "type": "address"
        },
        {
          "indexed": true,
          "internalType": "uint256",
          "name": "tokenId",
          "type": "uint256"
        }
      ],
      "name": "Transfer",
      "type": "event"
    },
    {
      "inputs": [
        {
          "internalType": "address",
          "name": "to",
          "type": "address"
        },
        {
          "internalType": "uint256",
          "name": "tokenId",
          "type": "uint256"
        }
      ],
      "name": "approve",
      "outputs": [],
      "stateMutability": "nonpayable",
      "type": "function"
    },
    {
      "inputs": [
        {
          "internalType": "address",
          "name": "owner",
          "type": "address"
        }
      ],
      "name": "balanceOf",
      "outputs": [
        {
          "internalType": "uint256",
          "name": "",
          "type": "uint256"
        }
      ],
      "stateMutability": "view",
      "type": "function"
    },
    {
      "inputs": [
        {
          "internalType": "string",
          "name": "_name",
          "type": "string"
        },
        {
          "internalType": "string",
          "name": "_location",
          "type": "string"
        },
        {
          "internalType": "uint256",
          "name": "_budget",
          "type": "uint256"
        },
        {
          "internalType": "address[]",
          "name": "_signatories",
          "type": "address[]"
        },
        {
          "internalType": "string",
          "name": "_timelineStart",
          "type": "string"
        },
        {
          "internalType": "string",
          "name": "_timelineEnd",
          "type": "string"
        },
        {
          "internalType": "string",
          "name": "_proposalLink",
          "type": "string"
        }
      ],
      "name": "createProjectNft",
      "outputs": [],
      "stateMutability": "nonpayable",
      "type": "function"
    },
    {
      "inputs": [
        {
          "internalType": "uint256",
          "name": "tokenId",
          "type": "uint256"
        }
      ],
      "name": "getApproved",
      "outputs": [
        {
          "internalType": "address",
          "name": "",
          "type": "address"
        }
      ],
      "stateMutability": "view",
      "type": "function"
    },
    {
      "inputs": [],
      "name": "i_owner",
      "outputs": [
        {
          "internalType": "address",
          "name": "",
          "type": "address"
        }
      ],
      "stateMutability": "view",
      "type": "function"
    },
    {
      "inputs": [
        {
          "internalType": "address",
          "name": "owner",
          "type": "address"
        },
        {
          "internalType": "address",
          "name": "operator",
          "type": "address"
        }
      ],
      "name": "isApprovedForAll",
      "outputs": [
        {
          "internalType": "bool",
          "name": "",
          "type": "bool"
        }
      ],
      "stateMutability": "view",
      "type": "function"
    },
    {
      "inputs": [],
      "name": "name",
      "outputs": [
        {
          "internalType": "string",
          "name": "",
          "type": "string"
        }
      ],
      "stateMutability": "view",
      "type": "function"
    },
    {
      "inputs": [],
      "name": "nextProjectId",
      "outputs": [
        {
          "internalType": "uint256",
          "name": "",
          "type": "uint256"
        }
      ],
      "stateMutability": "view",
      "type": "function"
    },
    {
      "inputs": [
        {
          "internalType": "uint256",
          "name": "tokenId",
          "type": "uint256"
        }
      ],
      "name": "ownerOf",
      "outputs": [
        {
          "internalType": "address",
          "name": "",
          "type": "address"
        }
      ],
      "stateMutability": "view",
      "type": "function"
    },
    {
      "inputs": [
        {
          "internalType": "uint256",
          "name": "",
          "type": "uint256"
        }
      ],
      "name": "projects",
      "outputs": [
        {
          "internalType": "uint256",
          "name": "projectId",
          "type": "uint256"
        },
        {
          "internalType": "string",
          "name": "projectName",
          "type": "string"
        },
        {
          "internalType": "string",
          "name": "location",
          "type": "string"
        },
        {
          "internalType": "uint256",
          "name": "budgetPeso",
          "type": "uint256"
        },
        {
          "internalType": "string",
          "name": "timelineStart",
          "type": "string"
        },
        {
          "internalType": "string",
          "name": "timelineEnd",
          "type": "string"
        },
        {
          "internalType": "enum Projects.Status",
          "name": "status",
          "type": "uint8"
        },
        {
          "internalType": "string",
          "name": "proposalLink",
          "type": "string"
        }
      ],
      "stateMutability": "view",
      "type": "function"
    },
    {
      "inputs": [
        {
          "internalType": "address",
          "name": "from",
          "type": "address"
        },
        {
          "internalType": "address",
          "name": "to",
          "type": "address"
        },
        {
          "internalType": "uint256",
          "name": "tokenId",
          "type": "uint256"
        }
      ],
      "name": "safeTransferFrom",
      "outputs": [],
      "stateMutability": "nonpayable",
      "type": "function"
    },
    {
      "inputs": [
        {
          "internalType": "address",
          "name": "from",
          "type": "address"
        },
        {
          "internalType": "address",
          "name": "to",
          "type": "address"
        },
        {
          "internalType": "uint256",
          "name": "tokenId",
          "type": "uint256"
        },
        {
          "internalType": "bytes",
          "name": "data",
          "type": "bytes"
        }
      ],
      "name": "safeTransferFrom",
      "outputs": [],
      "stateMutability": "nonpayable",
      "type": "function"
    },
    {
      "inputs": [
        {
          "internalType": "address",
          "name": "operator",
          "type": "address"
        },
        {
          "internalType": "bool",
          "name": "approved",
          "type": "bool"
        }
      ],
      "name": "setApprovalForAll",
      "outputs": [],
      "stateMutability": "nonpayable",
      "type": "function"
    },
    {
      "inputs": [
        {
          "internalType": "bytes4",
          "name": "interfaceId",
          "type": "bytes4"
        }
      ],
      "name": "supportsInterface",
      "outputs": [
        {
          "internalType": "bool",
          "name": "",
          "type": "bool"
        }
      ],
      "stateMutability": "view",
      "type": "function"
    },
    {
      "inputs": [],
      "name": "symbol",
      "outputs": [
        {
          "internalType": "string",
          "name": "",
          "type": "string"
        }
      ],
      "stateMutability": "view",
      "type": "function"
    },
    {
      "inputs": [
        {
          "internalType": "uint256",
          "name": "tokenId",
          "type": "uint256"
        }
      ],
      "name": "tokenURI",
      "outputs": [
        {
          "internalType": "string",
          "name": "",
          "type": "string"
        }
      ],
      "stateMutability": "view",
      "type": "function"
    },
    {
      "inputs": [
        {
          "internalType": "address",
          "name": "from",
          "type": "address"
        },
        {
          "internalType": "address",
          "name": "to",
          "type": "address"
        },
        {
          "internalType": "uint256",
          "name": "tokenId",
          "type": "uint256"
        }
      ],
      "name": "transferFrom",
      "outputs": [],
      "stateMutability": "nonpayable",
      "type": "function"
    },
    {
      "inputs": [
        {
          "internalType": "uint256",
          "name": "_projectId",
          "type": "uint256"
        },
        {
          "internalType": "enum Projects.Status",
          "name": "_status",
          "type": "uint8"
        }
      ],
      "name": "updateStatus",
      "outputs": [],
      "stateMutability": "nonpayable",
      "type": "function"
    }
  ],
  "bytecode": "0x60a06040526001600655348015610014575f5ffd5b506040518060400160405280600d81526020016c445057485f50524f4a4543545360981b81525060405180604001604052806005815260200164044505748560dc1b815250815f90816100679190610144565b5060016100748282610144565b50503360808190526040519091507f50146d0e3c60aa1d17a70635b05494f864e86144a2201275021014fbf08bafe2905f90a26101fe565b634e487b7160e01b5f52604160045260245ffd5b600181811c908216806100d457607f821691505b6020821081036100f257634e487b7160e01b5f52602260045260245ffd5b50919050565b601f82111561013f57805f5260205f20601f840160051c8101602085101561011d5750805b601f840160051c820191505b8181101561013c575f8155600101610129565b50505b505050565b81516001600160401b0381111561015d5761015d6100ac565b6101718161016b84546100c0565b846100f8565b6020601f8211600181146101a3575f831561018c5750848201515b5f19600385901b1c1916600184901b17845561013c565b5f84815260208120601f198516915b828110156101d257878501518255602094850194600190920191016101b2565b50848210156101ef57868401515f19600387901b60f8161c191681555b50505050600190811b01905550565b6080516119e761021d5f395f818161026c015261093c01526119e75ff3fe608060405234801561000f575f5ffd5b5060043610610111575f3560e01c806370a082311161009e578063c87b56dd1161006e578063c87b56dd14610254578063dba6335f14610267578063e935b7b11461028e578063e985e9c514610297578063f4c85bb4146102aa575f5ffd5b806370a082311461020557806395d89b4114610226578063a22cb4651461022e578063b88d4fde14610241575f5ffd5b8063107046bd116100e4578063107046bd1461019257806323b872dd146101b95780633a1b3d31146101cc57806342842e0e146101df5780636352211e146101f2575f5ffd5b806301ffc9a71461011557806306fdde031461013d578063081812fc14610152578063095ea7b31461017d575b5f5ffd5b61012861012336600461122a565b6102bd565b60405190151581526020015b60405180910390f35b61014561030e565b6040516101349190611273565b610165610160366004611285565b61039d565b6040516001600160a01b039091168152602001610134565b61019061018b3660046112b7565b6103c4565b005b6101a56101a0366004611285565b6103d3565b604051610134989796959493929190611313565b6101906101c736600461139d565b6106ba565b6101906101da3660046113d7565b610748565b6101906101ed36600461139d565b6107f3565b610165610200366004611285565b610812565b610218610213366004611408565b61081c565b604051908152602001610134565b610145610861565b61019061023c366004611421565b610870565b61019061024f3660046114ed565b61087b565b610145610262366004611285565b610893565b6101657f000000000000000000000000000000000000000000000000000000000000000081565b61021860065481565b6101286102a5366004611564565b610904565b6101906102b836600461163a565b610931565b5f6001600160e01b031982166380ac58cd60e01b14806102ed57506001600160e01b03198216635b5e139f60e01b145b8061030857506301ffc9a760e01b6001600160e01b03198316145b92915050565b60605f805461031c90611750565b80601f016020809104026020016040519081016040528092919081815260200182805461034890611750565b80156103935780601f1061036a57610100808354040283529160200191610393565b820191905f5260205f20905b81548152906001019060200180831161037657829003601f168201915b5050505050905090565b5f6103a782610b0a565b505f828152600460205260409020546001600160a01b0316610308565b6103cf828233610b42565b5050565b60076020525f9081526040902080546001820180549192916103f490611750565b80601f016020809104026020016040519081016040528092919081815260200182805461042090611750565b801561046b5780601f106104425761010080835404028352916020019161046b565b820191905f5260205f20905b81548152906001019060200180831161044e57829003601f168201915b50505050509080600201805461048090611750565b80601f01602080910402602001604051908101604052809291908181526020018280546104ac90611750565b80156104f75780601f106104ce576101008083540402835291602001916104f7565b820191905f5260205f20905b8154815290600101906020018083116104da57829003601f168201915b50505050509080600301549080600501805461051290611750565b80601f016020809104026020016040519081016040528092919081815260200182805461053e90611750565b80156105895780601f1061056057610100808354040283529160200191610589565b820191905f5260205f20905b81548152906001019060200180831161056c57829003601f168201915b50505050509080600601805461059e90611750565b80601f01602080910402602001604051908101604052809291908181526020018280546105ca90611750565b80156106155780601f106105ec57610100808354040283529160200191610615565b820191905f5260205f20905b8154815290600101906020018083116105f857829003601f168201915b5050506007840154600885018054949560ff90921694919350915061063990611750565b80601f016020809104026020016040519081016040528092919081815260200182805461066590611750565b80156106b05780601f10610687576101008083540402835291602001916106b0565b820191905f5260205f20905b81548152906001019060200180831161069357829003601f168201915b5050505050905088565b6001600160a01b0382166106e857604051633250574960e11b81525f60048201526024015b60405180910390fd5b5f6106f4838333610b4f565b9050836001600160a01b0316816001600160a01b031614610742576040516364283d7b60e01b81526001600160a01b03808616600483015260248201849052821660448201526064016106df565b50505050565b5f8281526007602052604081206003015483910361077c57604051631cfe4d4160e31b8152600481018290526024016106df565b5f83815260076020819052604090912001805460ff811691849160ff191660018360048111156107ae576107ae6112df565b0217905550837f15a4a29eccf92a0bbf94f24a6840487aa0226f7fb02d3402f1f86b3360bdfc6a82856040516107e5929190611788565b60405180910390a250505050565b61080d83838360405180602001604052805f81525061087b565b505050565b5f61030882610b0a565b5f6001600160a01b038216610846576040516322718ad960e21b81525f60048201526024016106df565b506001600160a01b03165f9081526003602052604090205490565b60606001805461031c90611750565b6103cf338383610c41565b6108868484846106ba565b6107423385858585610cdf565b606061089e82610b0a565b505f6108b460408051602081019091525f815290565b90505f8151116108d25760405180602001604052805f8152506108fd565b806108dc84610e07565b6040516020016108ed9291906117ba565b6040516020818303038152906040525b9392505050565b6001600160a01b039182165f90815260056020908152604080832093909416825291909152205460ff1690565b336001600160a01b037f0000000000000000000000000000000000000000000000000000000000000000161461097c57604051633ed4250360e11b81523360048201526024016106df565b60405180610120016040528060065481526020018881526020018781526020018681526020018581526020018481526020018381526020015f60048111156109c6576109c66112df565b815260209081018390526006545f9081526007825260409020825181559082015160018201906109f69082611812565b5060408201516002820190610a0b9082611812565b506060820151600382015560808201518051610a3191600484019160209091019061119b565b5060a08201516005820190610a469082611812565b5060c08201516006820190610a5b9082611812565b5060e082015160078201805460ff19166001836004811115610a7f57610a7f6112df565b02179055506101008201516008820190610a999082611812565b50905050610aa933600654610e97565b6006547f8deb110bcc3f1bc11a2cca5dd088c43f03d8c5cd8d0ee7269dd518ac1c587784888888878787604051610ae5969594939291906118cd565b60405180910390a260068054905f610afc83611940565b919050555050505050505050565b5f818152600260205260408120546001600160a01b03168061030857604051637e27328960e01b8152600481018490526024016106df565b61080d8383836001610ef8565b5f828152600260205260408120546001600160a01b0390811690831615610b7b57610b7b818486610ffc565b6001600160a01b03811615610bb557610b965f855f5f610ef8565b6001600160a01b0381165f90815260036020526040902080545f190190555b6001600160a01b03851615610be3576001600160a01b0385165f908152600360205260409020805460010190555b5f8481526002602052604080822080546001600160a01b0319166001600160a01b0389811691821790925591518793918516917fddf252ad1be2c89b69c2b068fc378daa952ba7f163c4a11628f55a4df523b3ef91a4949350505050565b6001600160a01b038216610c7357604051630b61174360e31b81526001600160a01b03831660048201526024016106df565b6001600160a01b038381165f81815260056020908152604080832094871680845294825291829020805460ff191686151590811790915591519182527f17307eab39ab6107e8899845ad3d59bd9653f200f220920489ca2b5937696c31910160405180910390a3505050565b6001600160a01b0383163b15610e0057604051630a85bd0160e11b81526001600160a01b0384169063150b7a0290610d21908890889087908790600401611964565b6020604051808303815f875af1925050508015610d5b575060408051601f3d908101601f19168201909252610d5891810190611996565b60015b610dc2573d808015610d88576040519150601f19603f3d011682016040523d82523d5f602084013e610d8d565b606091505b5080515f03610dba57604051633250574960e11b81526001600160a01b03851660048201526024016106df565b805160208201fd5b6001600160e01b03198116630a85bd0160e11b14610dfe57604051633250574960e11b81526001600160a01b03851660048201526024016106df565b505b5050505050565b60605f610e1383611060565b60010190505f8167ffffffffffffffff811115610e3257610e3261144f565b6040519080825280601f01601f191660200182016040528015610e5c576020820181803683370190505b5090508181016020015b5f19016f181899199a1a9b1b9c1cb0b131b232b360811b600a86061a8153600a8504945084610e6657509392505050565b6001600160a01b038216610ec057604051633250574960e11b81525f60048201526024016106df565b5f610ecc83835f610b4f565b90506001600160a01b0381161561080d576040516339e3563760e11b81525f60048201526024016106df565b8080610f0c57506001600160a01b03821615155b15610fcd575f610f1b84610b0a565b90506001600160a01b03831615801590610f475750826001600160a01b0316816001600160a01b031614155b8015610f5a5750610f588184610904565b155b15610f835760405163a9fbf51f60e01b81526001600160a01b03841660048201526024016106df565b8115610fcb5783856001600160a01b0316826001600160a01b03167f8c5be1e5ebec7d5bd14f71427d1e84f3dd0314c0f7b2291e5b200ac8c7c3b92560405160405180910390a45b505b50505f90815260046020526040902080546001600160a01b0319166001600160a01b0392909216919091179055565b611007838383611137565b61080d576001600160a01b03831661103557604051637e27328960e01b8152600481018290526024016106df565b60405163177e802f60e01b81526001600160a01b0383166004820152602481018290526044016106df565b5f8072184f03e93ff9f4daa797ed6e38ed64bf6a1f0160401b831061109e5772184f03e93ff9f4daa797ed6e38ed64bf6a1f0160401b830492506040015b6d04ee2d6d415b85acef810000000083106110ca576d04ee2d6d415b85acef8100000000830492506020015b662386f26fc1000083106110e857662386f26fc10000830492506010015b6305f5e1008310611100576305f5e100830492506008015b612710831061111457612710830492506004015b60648310611126576064830492506002015b600a83106103085760010192915050565b5f6001600160a01b038316158015906111935750826001600160a01b0316846001600160a01b0316148061117057506111708484610904565b8061119357505f828152600460205260409020546001600160a01b038481169116145b949350505050565b828054828255905f5260205f209081019282156111ee579160200282015b828111156111ee57825182546001600160a01b0319166001600160a01b039091161782556020909201916001909101906111b9565b506111fa9291506111fe565b5090565b5b808211156111fa575f81556001016111ff565b6001600160e01b031981168114611227575f5ffd5b50565b5f6020828403121561123a575f5ffd5b81356108fd81611212565b5f81518084528060208401602086015e5f602082860101526020601f19601f83011685010191505092915050565b602081525f6108fd6020830184611245565b5f60208284031215611295575f5ffd5b5035919050565b80356001600160a01b03811681146112b2575f5ffd5b919050565b5f5f604083850312156112c8575f5ffd5b6112d18361129c565b946020939093013593505050565b634e487b7160e01b5f52602160045260245ffd5b6005811061130f57634e487b7160e01b5f52602160045260245ffd5b9052565b88815261010060208201525f61132d61010083018a611245565b828103604084015261133f818a611245565b905087606084015282810360808401526113598188611245565b905082810360a084015261136d8187611245565b905061137c60c08401866112f3565b82810360e084015261138e8185611245565b9b9a5050505050505050505050565b5f5f5f606084860312156113af575f5ffd5b6113b88461129c565b92506113c66020850161129c565b929592945050506040919091013590565b5f5f604083850312156113e8575f5ffd5b823591506020830135600581106113fd575f5ffd5b809150509250929050565b5f60208284031215611418575f5ffd5b6108fd8261129c565b5f5f60408385031215611432575f5ffd5b61143b8361129c565b9150602083013580151581146113fd575f5ffd5b634e487b7160e01b5f52604160045260245ffd5b604051601f8201601f1916810167ffffffffffffffff8111828210171561148c5761148c61144f565b604052919050565b5f5f67ffffffffffffffff8411156114ae576114ae61144f565b50601f8301601f19166020016114c381611463565b9150508281528383830111156114d7575f5ffd5b828260208301375f602084830101529392505050565b5f5f5f5f60808587031215611500575f5ffd5b6115098561129c565b93506115176020860161129c565b925060408501359150606085013567ffffffffffffffff811115611539575f5ffd5b8501601f81018713611549575f5ffd5b61155887823560208401611494565b91505092959194509250565b5f5f60408385031215611575575f5ffd5b61157e8361129c565b915061158c6020840161129c565b90509250929050565b5f82601f8301126115a4575f5ffd5b6108fd83833560208501611494565b5f82601f8301126115c2575f5ffd5b813567ffffffffffffffff8111156115dc576115dc61144f565b8060051b6115ec60208201611463565b91825260208185018101929081019086841115611607575f5ffd5b6020860192505b838310156116305761161f8361129c565b82526020928301929091019061160e565b9695505050505050565b5f5f5f5f5f5f5f60e0888a031215611650575f5ffd5b873567ffffffffffffffff811115611666575f5ffd5b6116728a828b01611595565b975050602088013567ffffffffffffffff81111561168e575f5ffd5b61169a8a828b01611595565b96505060408801359450606088013567ffffffffffffffff8111156116bd575f5ffd5b6116c98a828b016115b3565b945050608088013567ffffffffffffffff8111156116e5575f5ffd5b6116f18a828b01611595565b93505060a088013567ffffffffffffffff81111561170d575f5ffd5b6117198a828b01611595565b92505060c088013567ffffffffffffffff811115611735575f5ffd5b6117418a828b01611595565b91505092959891949750929550565b600181811c9082168061176457607f821691505b60208210810361178257634e487b7160e01b5f52602260045260245ffd5b50919050565b6040810161179682856112f3565b6108fd60208301846112f3565b5f81518060208401855e5f93019283525090919050565b5f6111936117c883866117a3565b846117a3565b601f82111561080d57805f5260205f20601f840160051c810160208510156117f35750805b601f840160051c820191505b81811015610e00575f81556001016117ff565b815167ffffffffffffffff81111561182c5761182c61144f565b6118408161183a8454611750565b846117ce565b6020601f821160018114611872575f831561185b5750848201515b5f19600385901b1c1916600184901b178455610e00565b5f84815260208120601f198516915b828110156118a15787850151825560209485019460019092019101611881565b50848210156118be57868401515f19600387901b60f8161c191681555b50505050600190811b01905550565b60c081525f6118df60c0830189611245565b82810360208401526118f18189611245565b9050866040840152828103606084015261190b8187611245565b9050828103608084015261191f8186611245565b905082810360a08401526119338185611245565b9998505050505050505050565b5f6001820161195d57634e487b7160e01b5f52601160045260245ffd5b5060010190565b6001600160a01b03858116825284166020820152604081018390526080606082018190525f9061163090830184611245565b5f602082840312156119a6575f5ffd5b81516108fd8161121256fea2646970667358221220c5d35944ace9d2f77e3ff65066be1ccc598079fc601f97e20de5aa5ad5be0b7b64736f6c634300081c0033",
  "linkReferences": {},
  "deployedLinkReferences": {},
  "immutableReferences": {
    "6399": [
      {
        "length": 32,
        "start": 620
      },
      {
        "length": 32,
        "start": 2364
      }
    ]
  },
  "inputSourceName": "project/contracts/Projects.sol",
  "buildInfoId": "solc-0_8_28-fdbd58a7b19c961a84f7b9dccdc0cf749c9d0020"
}