{
  "_format": "hh3-artifact-1",
  "contractName": "GovToken",
  "sourceName": "contracts/GovToken.sol",
  "abi": [
    {
      "inputs": [],
      "stateMutability": "nonpayable",
      "type": "constructor"
    },
    {
      "inputs": [
        {
          "internalType": "address",
          "name": "spender",
          "type": "address"
        },
        {
          "internalType": "uint256",
          "name": "allowance",
          "type": "uint256"
        },
        {
          "internalType": "uint256",
          "name": "needed",
          "type": "uint256"
        }
      ],
      "name": "ERC20InsufficientAllowance",
      "type": "error"
    },
    {
      "inputs": [
        {
          "internalType": "address",
          "name": "sender",
          "type": "address"
        },
        {
          "internalType": "uint256",
          "name": "balance",
          "type": "uint256"
        },
        {
          "internalType": "uint256",
          "name": "needed",
          "type": "uint256"
        }
      ],
      "name": "ERC20InsufficientBalance",
      "type": "error"
    },
    {
      "inputs": [
        {
          "internalType": "address",
          "name": "approver",
          "type": "address"
        }
      ],
      "name": "ERC20InvalidApprover",
      "type": "error"
    },
    {
      "inputs": [
        {
          "internalType": "address",
          "name": "receiver",
          "type": "address"
        }
      ],
      "name": "ERC20InvalidReceiver",
      "type": "error"
    },
    {
      "inputs": [
        {
          "internalType": "address",
          "name": "sender",
          "type": "address"
        }
      ],
      "name": "ERC20InvalidSender",
      "type": "error"
    },
    {
      "inputs": [
        {
          "internalType": "address",
          "name": "spender",
          "type": "address"
        }
      ],
      "name": "ERC20InvalidSpender",
      "type": "error"
    },
    {
      "inputs": [
        {
          "internalType": "address",
          "name": "_ownerAddress",
          "type": "address"
        }
      ],
      "name": "notOwner",
      "type": "error"
    },
    {
      "anonymous": false,
      "inputs": [
        {
          "indexed": true,
          "internalType": "address",
          "name": "owner",
          "type": "address"
        },
        {
          "indexed": true,
          "internalType": "address",
          "name": "spender",
          "type": "address"
        },
        {
          "indexed": false,
          "internalType": "uint256",
          "name": "value",
          "type": "uint256"
        }
      ],
      "name": "Approval",
      "type": "event"
    },
    {
      "anonymous": false,
      "inputs": [
        {
          "indexed": true,
          "internalType": "address",
          "name": "approver",
          "type": "address"
        }
      ],
      "name": "ApproverAdded",
      "type": "event"
    },
    {
      "anonymous": false,
      "inputs": [
        {
          "indexed": false,
          "internalType": "address[]",
          "name": "approvers",
          "type": "address[]"
        }
      ],
      "name": "ApproversBatchAdded",
      "type": "event"
    },
    {
      "anonymous": false,
      "inputs": [
        {
          "indexed": true,
          "internalType": "address",
          "name": "owner",
          "type": "address"
        }
      ],
      "name": "OwnerSet",
      "type": "event"
    },
    {
      "anonymous": false,
      "inputs": [
        {
          "indexed": true,
          "internalType": "address",
          "name": "to",
          "type": "address"
        },
        {
          "indexed": false,
          "internalType": "uint256",
          "name": "amount",
          "type": "uint256"
        }
      ],
      "name": "TokenDistributed",
      "type": "event"
    },
    {
      "anonymous": false,
      "inputs": [
        {
          "indexed": true,
          "internalType": "address",
          "name": "from",
          "type": "address"
        },
        {
          "indexed": true,
          "internalType": "address",
          "name": "to",
          "type": "address"
        },
        {
          "indexed": false,
          "internalType": "uint256",
          "name": "value",
          "type": "uint256"
        }
      ],
      "name": "Transfer",
      "type": "event"
    },
    {
      "inputs": [
        {
          "internalType": "address[]",
          "name": "_approverAddress",
          "type": "address[]"
        }
      ],
      "name": "addApprovers",
      "outputs": [],
      "stateMutability": "nonpayable",
      "type": "function"
    },
    {
      "inputs": [
        {
          "internalType": "address",
          "name": "owner",
          "type": "address"
        },
        {
          "internalType": "address",
          "name": "spender",
          "type": "address"
        }
      ],
      "name": "allowance",
      "outputs": [
        {
          "internalType": "uint256",
          "name": "",
          "type": "uint256"
        }
      ],
      "stateMutability": "view",
      "type": "function"
    },
    {
      "inputs": [
        {
          "internalType": "address",
          "name": "spender",
          "type": "address"
        },
        {
          "internalType": "uint256",
          "name": "value",
          "type": "uint256"
        }
      ],
      "name": "approve",
      "outputs": [
        {
          "internalType": "bool",
          "name": "",
          "type": "bool"
        }
      ],
      "stateMutability": "nonpayable",
      "type": "function"
    },
    {
      "inputs": [
        {
          "internalType": "uint256",
          "name": "",
          "type": "uint256"
        }
      ],
      "name": "approverAddress",
      "outputs": [
        {
          "internalType": "address",
          "name": "",
          "type": "address"
        }
      ],
      "stateMutability": "view",
      "type": "function"
    },
    {
      "inputs": [
        {
          "internalType": "address",
          "name": "account",
          "type": "address"
        }
      ],
      "name": "balanceOf",
      "outputs": [
        {
          "internalType": "uint256",
          "name": "",
          "type": "uint256"
        }
      ],
      "stateMutability": "view",
      "type": "function"
    },
    {
      "inputs": [],
      "name": "countApprovers",
      "outputs": [
        {
          "internalType": "uint256",
          "name": "",
          "type": "uint256"
        }
      ],
      "stateMutability": "view",
      "type": "function"
    },
    {
      "inputs": [],
      "name": "decimals",
      "outputs": [
        {
          "internalType": "uint8",
          "name": "",
          "type": "uint8"
        }
      ],
      "stateMutability": "view",
      "type": "function"
    },
    {
      "inputs": [],
      "name": "distributeToken",
      "outputs": [],
      "stateMutability": "nonpayable",
      "type": "function"
    },
    {
      "inputs": [],
      "name": "i_owner",
      "outputs": [
        {
          "internalType": "address",
          "name": "",
          "type": "address"
        }
      ],
      "stateMutability": "view",
      "type": "function"
    },
    {
      "inputs": [],
      "name": "name",
      "outputs": [
        {
          "internalType": "string",
          "name": "",
          "type": "string"
        }
      ],
      "stateMutability": "view",
      "type": "function"
    },
    {
      "inputs": [],
      "name": "returnContractBalance",
      "outputs": [
        {
          "internalType": "uint256",
          "name": "",
          "type": "uint256"
        }
      ],
      "stateMutability": "view",
      "type": "function"
    },
    {
      "inputs": [],
      "name": "symbol",
      "outputs": [
        {
          "internalType": "string",
          "name": "",
          "type": "string"
        }
      ],
      "stateMutability": "view",
      "type": "function"
    },
    {
      "inputs": [],
      "name": "totalSupply",
      "outputs": [
        {
          "internalType": "uint256",
          "name": "",
          "type": "uint256"
        }
      ],
      "stateMutability": "view",
      "type": "function"
    },
    {
      "inputs": [
        {
          "internalType": "address",
          "name": "to",
          "type": "address"
        },
        {
          "internalType": "uint256",
          "name": "value",
          "type": "uint256"
        }
      ],
      "name": "transfer",
      "outputs": [
        {
          "internalType": "bool",
          "name": "",
          "type": "bool"
        }
      ],
      "stateMutability": "nonpayable",
      "type": "function"
    },
    {
      "inputs": [
        {
          "internalType": "address",
          "name": "from",
          "type": "address"
        },
        {
          "internalType": "address",
          "name": "to",
          "type": "address"
        },
        {
          "internalType": "uint256",
          "name": "value",
          "type": "uint256"
        }
      ],
      "name": "transferFrom",
      "outputs": [
        {
          "internalType": "bool",
          "name": "",
          "type": "bool"
        }
      ],
      "stateMutability": "nonpayable",
      "type": "function"
    }
  ],
  "bytecode": "0x60a060405234801561000f575f5ffd5b506040518060400160405280600881526020016723b7bb2a37b5b2b760c11b81525060405180604001604052806007815260200166475643484e544b60c81b815250816003908161006091906102d1565b50600461006d82826102d1565b50505061009e306100826100d160201b60201c565b61008d90600a610484565b610099906107d0610499565b6100d6565b3360808190526040517f50146d0e3c60aa1d17a70635b05494f864e86144a2201275021014fbf08bafe2905f90a26104c3565b601290565b6001600160a01b0382166101045760405163ec442f0560e01b81525f60048201526024015b60405180910390fd5b61010f5f8383610113565b5050565b6001600160a01b03831661013d578060025f82825461013291906104b0565b909155506101ad9050565b6001600160a01b0383165f908152602081905260409020548181101561018f5760405163391434e360e21b81526001600160a01b038516600482015260248101829052604481018390526064016100fb565b6001600160a01b0384165f9081526020819052604090209082900390555b6001600160a01b0382166101c9576002805482900390556101e7565b6001600160a01b0382165f9081526020819052604090208054820190555b816001600160a01b0316836001600160a01b03167fddf252ad1be2c89b69c2b068fc378daa952ba7f163c4a11628f55a4df523b3ef8360405161022c91815260200190565b60405180910390a3505050565b634e487b7160e01b5f52604160045260245ffd5b600181811c9082168061026157607f821691505b60208210810361027f57634e487b7160e01b5f52602260045260245ffd5b50919050565b601f8211156102cc57805f5260205f20601f840160051c810160208510156102aa5750805b601f840160051c820191505b818110156102c9575f81556001016102b6565b50505b505050565b81516001600160401b038111156102ea576102ea610239565b6102fe816102f8845461024d565b84610285565b6020601f821160018114610330575f83156103195750848201515b5f19600385901b1c1916600184901b1784556102c9565b5f84815260208120601f198516915b8281101561035f578785015182556020948501946001909201910161033f565b508482101561037c57868401515f19600387901b60f8161c191681555b50505050600190811b01905550565b634e487b7160e01b5f52601160045260245ffd5b6001815b60018411156103da578085048111156103be576103be61038b565b60018416156103cc57908102905b60019390931c9280026103a3565b935093915050565b5f826103f05750600161047e565b816103fc57505f61047e565b8160018114610412576002811461041c57610438565b600191505061047e565b60ff84111561042d5761042d61038b565b50506001821b61047e565b5060208310610133831016604e8410600b841016171561045b575081810a61047e565b6104675f19848461039f565b805f190482111561047a5761047a61038b565b0290505b92915050565b5f61049260ff8416836103e2565b9392505050565b808202811582820484141761047e5761047e61038b565b8082018082111561047e5761047e61038b565b608051610cc56104e95f395f818161021601528181610347015261047a0152610cc55ff3fe608060405234801561000f575f5ffd5b50600436106100f0575f3560e01c8063665a76771161009357806395d89b411161006357806395d89b41146101f6578063a9059cbb146101fe578063dba6335f14610211578063dd62ed3e14610238575f5ffd5b8063665a76771461017c5780636a882d51146101a757806370a08231146101ba5780638ce8dd06146101e2575f5ffd5b806323b872dd116100ce57806323b872dd146101475780632815db4d1461015a578063313ce567146101635780633427363714610172575f5ffd5b806306fdde03146100f4578063095ea7b31461011257806318160ddd14610135575b5f5ffd5b6100fc610270565b60405161010991906108b8565b60405180910390f35b610125610120366004610908565b610300565b6040519015158152602001610109565b6002545b604051908152602001610109565b610125610155366004610930565b610319565b61013960065481565b60405160128152602001610109565b61017a61033c565b005b61018f61018a36600461096a565b610447565b6040516001600160a01b039091168152602001610109565b61017a6101b5366004610995565b61046f565b6101396101c8366004610a60565b6001600160a01b03165f9081526020819052604090205490565b305f90815260208190526040902054610139565b6100fc6105b9565b61012561020c366004610908565b6105c8565b61018f7f000000000000000000000000000000000000000000000000000000000000000081565b610139610246366004610a80565b6001600160a01b039182165f90815260016020908152604080832093909416825291909152205490565b60606003805461027f90610ab1565b80601f01602080910402602001604051908101604052809291908181526020018280546102ab90610ab1565b80156102f65780601f106102cd576101008083540402835291602001916102f6565b820191905f5260205f20905b8154815290600101906020018083116102d957829003601f168201915b5050505050905090565b5f3361030d8185856105d5565b60019150505b92915050565b5f336103268582856105e7565b610331858585610663565b506001949350505050565b336001600160a01b037f0000000000000000000000000000000000000000000000000000000000000000161461038c57604051633ed4250360e11b81523360048201526024015b60405180910390fd5b5f5b600554811015610444576103df30600583815481106103af576103af610ae9565b5f918252602090912001546001600160a01b03166103cf6012600a610bf4565b6103da906001610c02565b610663565b600581815481106103f2576103f2610ae9565b5f9182526020918290200154604051600181526001600160a01b03909116917ff6f55ada4fbb9e2bc6813f97e749a30067f3c13a200ce783269b50e6419e8f64910160405180910390a260010161038e565b50565b60058181548110610456575f80fd5b5f918252602090912001546001600160a01b0316905081565b336001600160a01b037f000000000000000000000000000000000000000000000000000000000000000016146104ba57604051633ed4250360e11b8152336004820152602401610383565b5f5b815181101561057e5760058282815181106104d9576104d9610ae9565b60209081029190910181015182546001810184555f93845291832090910180546001600160a01b0319166001600160a01b03909216919091179055600680549161052283610c19565b919050555081818151811061053957610539610ae9565b60200260200101516001600160a01b03167f835bddf1ceee4956e4329af9edf018523c1191238187a597453f6020bcadb04260405160405180910390a26001016104bc565b507ffe98690dbaf8b327ffd4916f764e7c652779b32152e369b00777d32e98f516a9816040516105ae9190610c31565b60405180910390a150565b60606004805461027f90610ab1565b5f3361030d818585610663565b6105e283838360016106c0565b505050565b6001600160a01b038381165f908152600160209081526040808320938616835292905220545f1981101561065d578181101561064f57604051637dc7a0d960e11b81526001600160a01b03841660048201526024810182905260448101839052606401610383565b61065d84848484035f6106c0565b50505050565b6001600160a01b03831661068c57604051634b637e8f60e11b81525f6004820152602401610383565b6001600160a01b0382166106b55760405163ec442f0560e01b81525f6004820152602401610383565b6105e2838383610792565b6001600160a01b0384166106e95760405163e602df0560e01b81525f6004820152602401610383565b6001600160a01b03831661071257604051634a1406b160e11b81525f6004820152602401610383565b6001600160a01b038085165f908152600160209081526040808320938716835292905220829055801561065d57826001600160a01b0316846001600160a01b03167f8c5be1e5ebec7d5bd14f71427d1e84f3dd0314c0f7b2291e5b200ac8c7c3b9258460405161078491815260200190565b60405180910390a350505050565b6001600160a01b0383166107bc578060025f8282546107b19190610c7c565b9091555061082c9050565b6001600160a01b0383165f908152602081905260409020548181101561080e5760405163391434e360e21b81526001600160a01b03851660048201526024810182905260448101839052606401610383565b6001600160a01b0384165f9081526020819052604090209082900390555b6001600160a01b03821661084857600280548290039055610866565b6001600160a01b0382165f9081526020819052604090208054820190555b816001600160a01b0316836001600160a01b03167fddf252ad1be2c89b69c2b068fc378daa952ba7f163c4a11628f55a4df523b3ef836040516108ab91815260200190565b60405180910390a3505050565b602081525f82518060208401528060208501604085015e5f604082850101526040601f19601f83011684010191505092915050565b80356001600160a01b0381168114610903575f5ffd5b919050565b5f5f60408385031215610919575f5ffd5b610922836108ed565b946020939093013593505050565b5f5f5f60608486031215610942575f5ffd5b61094b846108ed565b9250610959602085016108ed565b929592945050506040919091013590565b5f6020828403121561097a575f5ffd5b5035919050565b634e487b7160e01b5f52604160045260245ffd5b5f602082840312156109a5575f5ffd5b813567ffffffffffffffff8111156109bb575f5ffd5b8201601f810184136109cb575f5ffd5b803567ffffffffffffffff8111156109e5576109e5610981565b8060051b604051601f19603f830116810181811067ffffffffffffffff82111715610a1257610a12610981565b604052918252602081840181019290810187841115610a2f575f5ffd5b6020850194505b83851015610a5557610a47856108ed565b815260209485019401610a36565b509695505050505050565b5f60208284031215610a70575f5ffd5b610a79826108ed565b9392505050565b5f5f60408385031215610a91575f5ffd5b610a9a836108ed565b9150610aa8602084016108ed565b90509250929050565b600181811c90821680610ac557607f821691505b602082108103610ae357634e487b7160e01b5f52602260045260245ffd5b50919050565b634e487b7160e01b5f52603260045260245ffd5b634e487b7160e01b5f52601160045260245ffd5b6001815b6001841115610b4c57808504811115610b3057610b30610afd565b6001841615610b3e57908102905b60019390931c928002610b15565b935093915050565b5f82610b6257506001610313565b81610b6e57505f610313565b8160018114610b845760028114610b8e57610baa565b6001915050610313565b60ff841115610b9f57610b9f610afd565b50506001821b610313565b5060208310610133831016604e8410600b8410161715610bcd575081810a610313565b610bd95f198484610b11565b805f1904821115610bec57610bec610afd565b029392505050565b5f610a7960ff841683610b54565b808202811582820484141761031357610313610afd565b5f60018201610c2a57610c2a610afd565b5060010190565b602080825282518282018190525f918401906040840190835b81811015610c715783516001600160a01b0316835260209384019390920191600101610c4a565b509095945050505050565b8082018082111561031357610313610afd56fea26469706673582212205d24c4f0e3a19f53c7d23e0a22a5d6ba91677ea2707402daddb3faa5b709eab064736f6c634300081c0033",
  "linkReferences": {},
  "deployedLinkReferences": {},
  "immutableReferences": {
    "802": [
      {
        "length": 32,
        "start": 534
      },
      {
        "length": 32,
        "start": 839
      },
      {
        "length": 32,
        "start": 1146
      }
    ]
  },
  "inputSourceName": "project/contracts/GovToken.sol",
  "buildInfoId": "solc-0_8_28-b0cd5d9f9f15fbc00a4d9d85e3bc03bcb31d1dd6"
}