{
  "_format": "hh3-artifact-1",
  "contractName": "Voting",
  "sourceName": "contracts/Voting.sol",
  "abi": [
    {
      "inputs": [
        {
          "internalType": "address",
          "name": "_govToken",
          "type": "address"
        },
        {
          "internalType": "address",
          "name": "_projectContract",
          "type": "address"
        }
      ],
      "stateMutability": "nonpayable",
      "type": "constructor"
    },
    {
      "inputs": [],
      "name": "AlreadyVoted",
      "type": "error"
    },
    {
      "inputs": [],
      "name": "NoVoteCast",
      "type": "error"
    },
    {
      "inputs": [],
      "name": "NotEligibleVoter",
      "type": "error"
    },
    {
      "inputs": [],
      "name": "NotEnoughBalance",
      "type": "error"
    },
    {
      "anonymous": false,
      "inputs": [
        {
          "indexed": true,
          "internalType": "uint256",
          "name": "projectId",
          "type": "uint256"
        },
        {
          "indexed": true,
          "internalType": "address",
          "name": "voter",
          "type": "address"
        },
        {
          "indexed": false,
          "internalType": "bool",
          "name": "approved",
          "type": "bool"
        },
        {
          "indexed": false,
          "internalType": "uint256",
          "name": "weight",
          "type": "uint256"
        }
      ],
      "name": "VoteCast",
      "type": "event"
    },
    {
      "anonymous": false,
      "inputs": [
        {
          "indexed": true,
          "internalType": "uint256",
          "name": "projectId",
          "type": "uint256"
        },
        {
          "indexed": false,
          "internalType": "bool",
          "name": "approved",
          "type": "bool"
        },
        {
          "indexed": false,
          "internalType": "uint256",
          "name": "yesVotes",
          "type": "uint256"
        },
        {
          "indexed": false,
          "internalType": "uint256",
          "name": "noVotes",
          "type": "uint256"
        }
      ],
      "name": "VoteFinalized",
      "type": "event"
    },
    {
      "anonymous": false,
      "inputs": [
        {
          "indexed": true,
          "internalType": "uint256",
          "name": "projectId",
          "type": "uint256"
        },
        {
          "indexed": false,
          "internalType": "address[]",
          "name": "eligibleVoters",
          "type": "address[]"
        }
      ],
      "name": "VoteSessionCreated",
      "type": "event"
    },
    {
      "inputs": [
        {
          "internalType": "uint256",
          "name": "_projectId",
          "type": "uint256"
        }
      ],
      "name": "ManualFinalize",
      "outputs": [],
      "stateMutability": "nonpayable",
      "type": "function"
    },
    {
      "inputs": [
        {
          "internalType": "uint256",
          "name": "_projectId",
          "type": "uint256"
        }
      ],
      "name": "allVoted",
      "outputs": [
        {
          "internalType": "bool",
          "name": "",
          "type": "bool"
        }
      ],
      "stateMutability": "view",
      "type": "function"
    },
    {
      "inputs": [],
      "name": "approvalThreshold",
      "outputs": [
        {
          "internalType": "uint256",
          "name": "",
          "type": "uint256"
        }
      ],
      "stateMutability": "view",
      "type": "function"
    },
    {
      "inputs": [
        {
          "internalType": "uint256",
          "name": "_projectId",
          "type": "uint256"
        },
        {
          "internalType": "address[]",
          "name": "_eligibleVoters",
          "type": "address[]"
        }
      ],
      "name": "createVoteSession",
      "outputs": [],
      "stateMutability": "nonpayable",
      "type": "function"
    },
    {
      "inputs": [
        {
          "internalType": "uint256",
          "name": "_projectId",
          "type": "uint256"
        },
        {
          "internalType": "bool",
          "name": "approve",
          "type": "bool"
        }
      ],
      "name": "vote",
      "outputs": [],
      "stateMutability": "nonpayable",
      "type": "function"
    }
  ],
  "bytecode": "0x60c06040526046600155348015610014575f5ffd5b50604051610a3c380380610a3c83398101604081905261003391610065565b6001600160a01b039182166080521660a052610096565b80516001600160a01b0381168114610060575f5ffd5b919050565b5f5f60408385031215610076575f5ffd5b61007f8361004a565b915061008d6020840161004a565b90509250929050565b60805160a0516109776100c55f395f81816105df015261066001525f818161027701526103a501526109775ff3fe608060405234801561000f575f5ffd5b5060043610610055575f3560e01c80632c684d95146100595780632cfc11ac1461006e5780637d0eef6114610081578063c9d27afe1461009d578063e996d1bf146100b0575b5f5ffd5b61006c610067366004610723565b6100ea565b005b61006c61007c36600461073a565b6100f6565b61008a60015481565b6040519081526020015b60405180910390f35b61006c6100ab3660046107b4565b61025f565b6100da6100be366004610723565b5f90815260208190526040902060028101546003909101541490565b6040519015158152602001610094565b6100f381610518565b50565b5f83815260208190526040902060028101541561015a5760405162461bcd60e51b815260206004820152601b60248201527f566f74652073657373696f6e20616c726561647920657869737473000000000060448201526064015b60405180910390fd5b5f5b8281101561021e578160020184848381811061017a5761017a6107e6565b905060200201602081019061018f9190610815565b8154600180820184555f9384526020842090910180546001600160a01b0319166001600160a01b0393909316929092179091559060088401908686858181106101da576101da6107e6565b90506020020160208101906101ef9190610815565b6001600160a01b0316815260208101919091526040015f20805460ff191691151591909117905560010161015c565b50837f95ce722494d7ccd72ad3f35c088f46ac08c0e3707398e6790f3677156fabb6138484604051610251929190610835565b60405180910390a250505050565b6040516370a0823160e01b81523360048201526001907f00000000000000000000000000000000000000000000000000000000000000006001600160a01b0316906370a0823190602401602060405180830381865afa1580156102c4573d5f5f3e3d5ffd5b505050506040513d601f19601f820116820180604052508101906102e8919061087f565b10156103075760405163569d45cf60e11b815260040160405180910390fd5b5f82815260208181526040808320338452600801909152902054829060ff166103435760405163c59b6a7560e01b815260040160405180910390fd5b5f83815260208181526040808320338452600501909152902054839060ff161561038057604051637c9a1cf960e01b815260040160405180910390fd5b5f8481526020819052604080822090516370a0823160e01b81523360048201529091907f00000000000000000000000000000000000000000000000000000000000000006001600160a01b0316906370a0823190602401602060405180830381865afa1580156103f2573d5f5f3e3d5ffd5b505050506040513d601f19601f82011682018060405250810190610416919061087f565b905084156104555780825f015f82825461043091906108aa565b9091555050335f9081526006830160205260409020805460ff19166001179055610489565b80826001015f82825461046891906108aa565b9091555050335f9081526007830160205260409020805460ff191660011790555b335f9081526005830160205260408120805460ff19166001179055600383018054916104b4836108c3565b909155505060408051861515815260208101839052339188917fcbdf6214089cba887ecbf35a0b6a734589959c9763342c756bb2a80ca2bc9f6e910160405180910390a360028201546003830154036105105761051086610518565b505050505050565b5f818152602081905260409020600481015460ff161561056e5760405162461bcd60e51b8152602060048201526011602482015270105b1c9958591e48199a5b985b1a5e9959607a1b6044820152606401610151565b805460018201545f61058082846108aa565b9050805f036105a25760405163d0dad65f60e01b815260040160405180910390fd5b5f816105af8560646108db565b6105b991906108f2565b600154909150811080159061064957604051633a1b3d3160e01b81526001600160a01b037f00000000000000000000000000000000000000000000000000000000000000001690633a1b3d3190610617908a90600290600401610911565b5f604051808303815f87803b15801561062e575f5ffd5b505af1158015610640573d5f5f3e3d5ffd5b505050506106c6565b604051633a1b3d3160e01b81526001600160a01b037f00000000000000000000000000000000000000000000000000000000000000001690633a1b3d3190610698908a90600190600401610911565b5f604051808303815f87803b1580156106af575f5ffd5b505af11580156106c1573d5f5f3e3d5ffd5b505050505b60048601805460ff191660011790556040805182151581526020810187905290810185905287907fb52afbb5909d00e1a72ee9ad86d08f3ef4ed25ec8b936dbc0dd189d01c5943d89060600160405180910390a250505050505050565b5f60208284031215610733575f5ffd5b5035919050565b5f5f5f6040848603121561074c575f5ffd5b83359250602084013567ffffffffffffffff811115610769575f5ffd5b8401601f81018613610779575f5ffd5b803567ffffffffffffffff81111561078f575f5ffd5b8660208260051b84010111156107a3575f5ffd5b939660209190910195509293505050565b5f5f604083850312156107c5575f5ffd5b82359150602083013580151581146107db575f5ffd5b809150509250929050565b634e487b7160e01b5f52603260045260245ffd5b80356001600160a01b0381168114610810575f5ffd5b919050565b5f60208284031215610825575f5ffd5b61082e826107fa565b9392505050565b602080825281018290525f8360408301825b85811015610875576001600160a01b03610860846107fa565b16825260209283019290910190600101610847565b5095945050505050565b5f6020828403121561088f575f5ffd5b5051919050565b634e487b7160e01b5f52601160045260245ffd5b808201808211156108bd576108bd610896565b92915050565b5f600182016108d4576108d4610896565b5060010190565b80820281158282048414176108bd576108bd610896565b5f8261090c57634e487b7160e01b5f52601260045260245ffd5b500490565b828152604081016005831061093457634e487b7160e01b5f52602160045260245ffd5b826020830152939250505056fea2646970667358221220292d75154a685535436cfa952ee8326372589aa171d613a302bc41b414822c5364736f6c634300081c0033",
  "linkReferences": {},
  "deployedLinkReferences": {},
  "immutableReferences": {
    "147": [
      {
        "length": 32,
        "start": 631
      },
      {
        "length": 32,
        "start": 933
      }
    ],
    "150": [
      {
        "length": 32,
        "start": 1503
      },
      {
        "length": 32,
        "start": 1632
      }
    ]
  },
  "inputSourceName": "project/contracts/Voting.sol",
  "buildInfoId": "solc-0_8_28-990a977726b23f267c2cbd40de3b3e67ccb6f814"
}